{
  "_format": "hh-sol-artifact-1",
  "contractName": "FoodTraceabilityMarketplace",
  "sourceName": "contracts/FoodTraceabilityMarketplace.sol",
  "abi": [
    {
      "inputs": [
        {
          "internalType": "address",
          "name": "_nft",
          "type": "address"
        }
      ],
      "stateMutability": "nonpayable",
      "type": "constructor"
    },
    {
      "inputs": [],
      "name": "NFT_alreadyListed",
      "type": "error"
    },
    {
      "inputs": [],
      "name": "NftIsNotApproved",
      "type": "error"
    },
    {
      "inputs": [],
      "name": "PleaseSendCorreactPrice",
      "type": "error"
    },
    {
      "inputs": [],
      "name": "TransferFailed",
      "type": "error"
    },
    {
      "anonymous": false,
      "inputs": [
        {
          "indexed": true,
          "internalType": "address",
          "name": "buyer",
          "type": "address"
        },
        {
          "indexed": true,
          "internalType": "address",
          "name": "nftAddress",
          "type": "address"
        },
        {
          "indexed": true,
          "internalType": "uint256",
          "name": "tokenId",
          "type": "uint256"
        },
        {
          "indexed": false,
          "internalType": "uint256",
          "name": "price",
          "type": "uint256"
        }
      ],
      "name": "ItemBought",
      "type": "event"
    },
    {
      "anonymous": false,
      "inputs": [
        {
          "indexed": true,
          "internalType": "address",
          "name": "seller",
          "type": "address"
        },
        {
          "indexed": true,
          "internalType": "address",
          "name": "nftAddress",
          "type": "address"
        },
        {
          "indexed": true,
          "internalType": "uint256",
          "name": "tokenId",
          "type": "uint256"
        }
      ],
      "name": "ItemCanceled",
      "type": "event"
    },
    {
      "anonymous": false,
      "inputs": [
        {
          "indexed": true,
          "internalType": "address",
          "name": "seller",
          "type": "address"
        },
        {
          "indexed": true,
          "internalType": "address",
          "name": "nftAddress",
          "type": "address"
        },
        {
          "indexed": true,
          "internalType": "uint256",
          "name": "tokenId",
          "type": "uint256"
        },
        {
          "indexed": false,
          "internalType": "uint256",
          "name": "price",
          "type": "uint256"
        }
      ],
      "name": "ItemListed",
      "type": "event"
    },
    {
      "inputs": [],
      "name": "ListdItems",
      "outputs": [
        {
          "internalType": "uint256",
          "name": "",
          "type": "uint256"
        }
      ],
      "stateMutability": "view",
      "type": "function"
    },
    {
      "inputs": [],
      "name": "NFTContract",
      "outputs": [
        {
          "internalType": "contract IERC721",
          "name": "",
          "type": "address"
        }
      ],
      "stateMutability": "view",
      "type": "function"
    },
    {
      "inputs": [
        {
          "internalType": "uint256",
          "name": "_itemId",
          "type": "uint256"
        }
      ],
      "name": "_checkItemsStatus",
      "outputs": [
        {
          "internalType": "bool",
          "name": "",
          "type": "bool"
        }
      ],
      "stateMutability": "view",
      "type": "function"
    },
    {
      "inputs": [
        {
          "internalType": "uint256",
          "name": "_itemId",
          "type": "uint256"
        }
      ],
      "name": "bid",
      "outputs": [],
      "stateMutability": "payable",
      "type": "function"
    },
    {
      "inputs": [
        {
          "internalType": "uint256",
          "name": "_itemId",
          "type": "uint256"
        }
      ],
      "name": "buyItem",
      "outputs": [],
      "stateMutability": "payable",
      "type": "function"
    },
    {
      "inputs": [
        {
          "internalType": "uint256",
          "name": "_itemId",
          "type": "uint256"
        }
      ],
      "name": "cancellItems",
      "outputs": [],
      "stateMutability": "nonpayable",
      "type": "function"
    },
    {
      "inputs": [
        {
          "internalType": "uint256",
          "name": "_itemId",
          "type": "uint256"
        }
      ],
      "name": "concludeItems",
      "outputs": [],
      "stateMutability": "nonpayable",
      "type": "function"
    },
    {
      "inputs": [
        {
          "internalType": "uint256",
          "name": "_tokenId",
          "type": "uint256"
        },
        {
          "internalType": "uint256",
          "name": "_basePrice",
          "type": "uint256"
        },
        {
          "internalType": "uint256",
          "name": "_endTime",
          "type": "uint256"
        }
      ],
      "name": "createItems",
      "outputs": [],
      "stateMutability": "nonpayable",
      "type": "function"
    },
    {
      "inputs": [
        {
          "internalType": "address",
          "name": "_address",
          "type": "address"
        }
      ],
      "name": "isUser",
      "outputs": [
        {
          "internalType": "bool",
          "name": "",
          "type": "bool"
        }
      ],
      "stateMutability": "view",
      "type": "function"
    },
    {
      "inputs": [
        {
          "internalType": "uint256",
          "name": "",
          "type": "uint256"
        }
      ],
      "name": "listedItemDetails",
      "outputs": [
        {
          "internalType": "address payable",
          "name": "seller",
          "type": "address"
        },
        {
          "internalType": "address",
          "name": "nftContract",
          "type": "address"
        },
        {
          "internalType": "uint256",
          "name": "tokenId",
          "type": "uint256"
        },
        {
          "internalType": "uint256",
          "name": "basePrice",
          "type": "uint256"
        },
        {
          "internalType": "address",
          "name": "highestBidder",
          "type": "address"
        },
        {
          "internalType": "uint256",
          "name": "highestBid",
          "type": "uint256"
        },
        {
          "internalType": "uint256",
          "name": "endTime",
          "type": "uint256"
        },
        {
          "internalType": "uint256",
          "name": "starTime",
          "type": "uint256"
        },
        {
          "internalType": "string",
          "name": "sallerRole",
          "type": "string"
        },
        {
          "internalType": "bool",
          "name": "isAuction",
          "type": "bool"
        },
        {
          "internalType": "bool",
          "name": "isListedOnSale",
          "type": "bool"
        }
      ],
      "stateMutability": "view",
      "type": "function"
    },
    {
      "inputs": [
        {
          "internalType": "uint256",
          "name": "",
          "type": "uint256"
        },
        {
          "internalType": "uint256",
          "name": "",
          "type": "uint256"
        }
      ],
      "name": "nftBuyHistory",
      "outputs": [
        {
          "internalType": "address",
          "name": "buyer",
          "type": "address"
        },
        {
          "internalType": "uint256",
          "name": "price",
          "type": "uint256"
        },
        {
          "internalType": "uint256",
          "name": "timestamp",
          "type": "uint256"
        }
      ],
      "stateMutability": "view",
      "type": "function"
    },
    {
      "inputs": [
        {
          "internalType": "string",
          "name": "_name",
          "type": "string"
        },
        {
          "internalType": "string",
          "name": "_email",
          "type": "string"
        },
        {
          "internalType": "uint256",
          "name": "_phone_number",
          "type": "uint256"
        },
        {
          "internalType": "string",
          "name": "_role",
          "type": "string"
        }
      ],
      "name": "registerAsUser",
      "outputs": [],
      "stateMutability": "nonpayable",
      "type": "function"
    },
    {
      "inputs": [
        {
          "internalType": "address",
          "name": "",
          "type": "address"
        }
      ],
      "name": "registerationAccount",
      "outputs": [
        {
          "internalType": "string",
          "name": "name",
          "type": "string"
        },
        {
          "internalType": "string",
          "name": "email",
          "type": "string"
        },
        {
          "internalType": "uint256",
          "name": "phone_number",
          "type": "uint256"
        },
        {
          "internalType": "string",
          "name": "role",
          "type": "string"
        },
        {
          "internalType": "bool",
          "name": "isRegister",
          "type": "bool"
        }
      ],
      "stateMutability": "view",
      "type": "function"
    },
    {
      "inputs": [
        {
          "internalType": "uint256",
          "name": "_itemId",
          "type": "uint256"
        },
        {
          "internalType": "uint256",
          "name": "_price",
          "type": "uint256"
        }
      ],
      "name": "sellItem",
      "outputs": [],
      "stateMutability": "nonpayable",
      "type": "function"
    },
    {
      "inputs": [],
      "name": "totalItemsSale",
      "outputs": [
        {
          "internalType": "uint256",
          "name": "",
          "type": "uint256"
        }
      ],
      "stateMutability": "view",
      "type": "function"
    }
  ],
  "bytecode": "0x608060405234801561001057600080fd5b50604051611f17380380611f1783398101604081905261002f91610059565b6001600055600680546001600160a01b0319166001600160a01b0392909216919091179055610089565b60006020828403121561006b57600080fd5b81516001600160a01b038116811461008257600080fd5b9392505050565b611e7f806100986000396000f3fe6080604052600436106100e85760003560e01c8063457e7d441161008a5780639753b644116100595780639753b644146102ab578063a4cfca05146102dc578063e7fb74c7146102fc578063f63ca7ba1461030f57600080fd5b8063457e7d44146102065780637f820375146102265780638ac5c6121461024657806396c685881461028b57600080fd5b806331c2273b116100c657806331c2273b146101585780634209fff11461019057806344ac0c41146101dd578063454a2ab3146101f357600080fd5b806309b4480e146100ed5780630c9aff25146101165780632d92356114610138575b600080fd5b3480156100f957600080fd5b5061010360025481565b6040519081526020015b60405180910390f35b34801561012257600080fd5b506101366101313660046119d5565b610346565b005b34801561014457600080fd5b50610136610153366004611a01565b610611565b34801561016457600080fd5b50600654610178906001600160a01b031681565b6040516001600160a01b03909116815260200161010d565b34801561019c57600080fd5b506101cd6101ab366004611a38565b6001600160a01b03166000908152600460208190526040909120015460ff1690565b604051901515815260200161010d565b3480156101e957600080fd5b5061010360015481565b610136610201366004611a5c565b610776565b34801561021257600080fd5b506101cd610221366004611a5c565b610a52565b34801561023257600080fd5b50610136610241366004611a5c565b610c0b565b34801561025257600080fd5b50610266610261366004611a01565b610edb565b604080516001600160a01b03909416845260208401929092529082015260600161010d565b34801561029757600080fd5b506101366102a6366004611a5c565b610f27565b3480156102b757600080fd5b506102cb6102c6366004611a38565b611398565b60405161010d959493929190611abb565b3480156102e857600080fd5b506101366102f7366004611bb2565b611561565b61013661030a366004611a5c565b611661565b34801561031b57600080fd5b5061032f61032a366004611a5c565b611884565b60405161010d9b9a99989796959493929190611c44565b60065460405163020604bf60e21b81526004810185905230916001600160a01b03169063081812fc90602401602060405180830381865afa15801561038f573d6000803e3d6000fd5b505050506040513d601f19601f820116820180604052508101906103b39190611cba565b6001600160a01b0316146103da57604051630a3492e360e31b815260040160405180910390fd5b600180549060006103ea83611cd7565b90915550506040805161016081018252338082526006546001600160a01b03166020808401919091528284018790526060830186905260006080840181905260a0840181905260c084018690524260e0850152918252600490529190912060030180546101008301919061045d90611cfe565b80601f016020809104026020016040519081016040528092919081815260200182805461048990611cfe565b80156104d65780601f106104ab576101008083540402835291602001916104d6565b820191906000526020600020905b8154815290600101906020018083116104b957829003601f168201915b505050918352505060016020808301829052604092830182905281546000908152600380835290849020855181546001600160a01b039182166001600160a01b031991821617835593870151948201805495821695851695909517909455938501516002850155606085015190840155608084015160048401805491909316911617905560a0820151600582015560c0820151600682015560e08201516007820155610100820151600882019061058d9082611d89565b50610120820151600990910180546101409093015115156101000261ff00199215159290921661ffff199093169290921717905560065460405184916001600160a01b03169033907fd547e933094f12a9159076970143ebe73234e64480317844b0dcb36117116de4906106049087815260200190565b60405180910390a4505050565b60008281526003602052604090206009810154610100900460ff161515600103610667576040517f90c2044b00000000000000000000000000000000000000000000000000000000815260040160405180910390fd5b600654600282015460405163020604bf60e21b8152600481019190915230916001600160a01b03169063081812fc90602401602060405180830381865afa1580156106b6573d6000803e3d6000fd5b505050506040513d601f19601f820116820180604052508101906106da9190611cba565b6001600160a01b03161461070157604051630a3492e360e31b815260040160405180910390fd5b80546001600160a01b0319163390811782556003820183905560098201805461ff0019166101001790556002820154600183015460405191926001600160a01b0391909116917fd547e933094f12a9159076970143ebe73234e64480317844b0dcb36117116de4906106049087815260200190565b61077e61197c565b6000818152600360205260409020600981015460ff166107e55760405162461bcd60e51b815260206004820152601f60248201527f54686973206974656d206e6f74206c6973746564206f6e2061756374696f6e0060448201526064015b60405180910390fd5b806006015442106108385760405162461bcd60e51b815260206004820152600e60248201527f4974656d2068617320656e64656400000000000000000000000000000000000060448201526064016107dc565b80546001600160a01b031661088f5760405162461bcd60e51b815260206004820152601360248201527f4974656d20646f6573206e6f742065786973740000000000000000000000000060448201526064016107dc565b3481600501541080156108a6575034816003015411155b6109185760405162461bcd60e51b815260206004820152603e60248201527f426964206d75737420626520686967686572207468616e20746865206375727260448201527f656e7420686967686573742062696420616e642062617365207072696365000060648201526084016107dc565b80546001600160a01b031633036109715760405162461bcd60e51b815260206004820181905260248201527f596f752063616e6e6f742062696420696e20796f7572206f776e204974656d7360448201526064016107dc565b60048101546001600160a01b03168015610a2b5760058201546040516000916001600160a01b038416918381818185875af1925050503d80600081146109d3576040519150601f19603f3d011682016040523d82523d6000602084013e6109d8565b606091505b5050905080610a295760405162461bcd60e51b815260206004820181905260248201527f4661696c656420746f20726566756e642070726576696f75732062696464657260448201526064016107dc565b505b5034600582015560040180546001600160a01b03191633179055610a4f6001600055565b50565b600081815260036020818152604080842081516101608101835281546001600160a01b039081168252600183015481169482019490945260028201549281019290925292830154606082015260048301549091166080820152600582015460a0820152600682015460c0820152600782015460e0820152600882018054849391610100840191610ae190611cfe565b80601f0160208091040260200160405190810160405280929190818152602001828054610b0d90611cfe565b8015610b5a5780601f10610b2f57610100808354040283529160200191610b5a565b820191906000526020600020905b815481529060010190602001808311610b3d57829003601f168201915b50505091835250506009919091015460ff80821615156020840152610100909104161515604090910152610140810151909150610bff5760405162461bcd60e51b815260206004820152602560248201527f4974656d7320666f722074686973204e4654206973206e6f7420696e2070726f60448201527f677265737300000000000000000000000000000000000000000000000000000060648201526084016107dc565b60c00151421192915050565b600081815260036020818152604080842081516101608101835281546001600160a01b039081168252600183015481169482019490945260028201549281019290925292830154606082015260048301549091166080820152600582015460a0820152600682015460c0820152600782015460e082015260088201805491929161010084019190610c9b90611cfe565b80601f0160208091040260200160405190810160405280929190818152602001828054610cc790611cfe565b8015610d145780601f10610ce957610100808354040283529160200191610d14565b820191906000526020600020905b815481529060010190602001808311610cf757829003601f168201915b50505091835250506009919091015460ff8082161515602084015261010090910416151560409091015280519091506001600160a01b03163314610d9a5760405162461bcd60e51b815260206004820152601d60248201527f596f7520617265206e6f74204f776e6572206f662074686973204e465400000060448201526064016107dc565b428160c0015110610ded5760405162461bcd60e51b815260206004820152601460248201527f4974656d732054696d652072656d61696e696e6700000000000000000000000060448201526064016107dc565b60006101408201819052610120820181905282815260036020818152604092839020845181546001600160a01b039182166001600160a01b03199182161783559286015160018301805491831691851691909117905593850151600282015560608501519281019290925560808401516004830180549190941691161790915560a0820151600582015560c0820151600682015560e082015160078201556101008201518291906008820190610ea39082611d89565b50610120820151600990910180546101409093015115156101000261ff00199215159290921661ffff19909316929092171790555050565b60056020528160005260406000208181548110610ef757600080fd5b60009182526020909120600390910201805460018201546002909201546001600160a01b03909116935090915083565b600081815260036020818152604080842081516101608101835281546001600160a01b039081168252600183015481169482019490945260028201549281019290925292830154606082015260048301549091166080820152600582015460a0820152600682015460c0820152600782015460e082015260088201805491929161010084019190610fb790611cfe565b80601f0160208091040260200160405190810160405280929190818152602001828054610fe390611cfe565b80156110305780601f1061100557610100808354040283529160200191611030565b820191906000526020600020905b81548152906001019060200180831161101357829003601f168201915b50505091835250506009919091015460ff8082161515602084015261010090910416151560409091015260808101519091506001600160a01b0316331480611081575080516001600160a01b031633145b6110f35760405162461bcd60e51b815260206004820152602c60248201527f596f7520617265206e6f7420617574686f72697a656420746f20636f6e636c7560448201527f646520746865204974656d73000000000000000000000000000000000000000060648201526084016107dc565b428160c00151106111465760405162461bcd60e51b815260206004820152601460248201527f4974656d732054696d652072656d61696e696e6700000000000000000000000060448201526064016107dc565b600654815160408084015190517f23b872dd0000000000000000000000000000000000000000000000000000000081526001600160a01b03928316600482015233602482015260448101919091529116906323b872dd90606401600060405180830381600087803b1580156111ba57600080fd5b505af11580156111ce573d6000803e3d6000fd5b505060006101208401819052610140840181905260028054935091506111f383611cd7565b9091555050600082815260036020818152604092839020845181546001600160a01b039182166001600160a01b03199182161783559286015160018301805491831691851691909117905593850151600282015560608501519281019290925560808401516004830180549190941691161790915560a0820151600582015560c0820151600682015560e08201516007820155610100820151829190600882019061129e9082611d89565b50610120820151600990910180546101409093015115156101000261ff00199215159290921661ffff19909316929092171790556040808201805160009081526005602090815283822084516060810186523380825260a08801805183860190815242848a01908152855460018181018855968952969097209351600390960290930180546001600160a01b039687166001600160a01b03199091161781559251938301939093559351600290910155925160065493519451909493909116927f263223b1dd81e51054a4e6f791d45a4a1ddb4aadcd93a2dfd892615c3fdac1879161138c91815260200190565b60405180910390a45050565b6004602052600090815260409020805481906113b390611cfe565b80601f01602080910402602001604051908101604052809291908181526020018280546113df90611cfe565b801561142c5780601f106114015761010080835404028352916020019161142c565b820191906000526020600020905b81548152906001019060200180831161140f57829003601f168201915b50505050509080600101805461144190611cfe565b80601f016020809104026020016040519081016040528092919081815260200182805461146d90611cfe565b80156114ba5780601f1061148f576101008083540402835291602001916114ba565b820191906000526020600020905b81548152906001019060200180831161149d57829003601f168201915b5050505050908060020154908060030180546114d590611cfe565b80601f016020809104026020016040519081016040528092919081815260200182805461150190611cfe565b801561154e5780601f106115235761010080835404028352916020019161154e565b820191906000526020600020905b81548152906001019060200180831161153157829003601f168201915b5050506004909301549192505060ff1685565b336000908152600460208190526040909120015460ff16156115c55760405162461bcd60e51b815260206004820152601a60248201527f596f752061726520616c7265616479207265676973746572656400000000000060448201526064016107dc565b6040805160a081018252858152602080820186905281830185905260608201849052600160808301523360009081526004909152919091208151819061160b9082611d89565b50602082015160018201906116209082611d89565b50604082015160028201556060820151600382019061163f9082611d89565b50608091909101516004909101805460ff191691151591909117905550505050565b6000818152600360208190526040909120908101543410156116af576040517fa58aac5400000000000000000000000000000000000000000000000000000000815260040160405180910390fd5b80546040516000916001600160a01b03169034908381818185875af1925050503d80600081146116fb576040519150601f19603f3d011682016040523d82523d6000602084013e611700565b606091505b505090508061173b576040517f90b8ec1800000000000000000000000000000000000000000000000000000000815260040160405180910390fd5b60098201805461ff0019169055600654825460028401546040517f42842e0e0000000000000000000000000000000000000000000000000000000081526001600160a01b03928316600482015233602482015260448101919091529116906342842e0e90606401600060405180830381600087803b1580156117bc57600080fd5b505af11580156117d0573d6000803e3d6000fd5b505050506002828101805460009081526005602090815260408083208151606081018352338082523482860190815242838601908152845460018082018755958952978790209351600398890290940180546001600160a01b0319166001600160a01b03958616178155915182860155519801979097559454908801549388015491519182529492909316927f263223b1dd81e51054a4e6f791d45a4a1ddb4aadcd93a2dfd892615c3fdac1879101610604565b60036020819052600091825260409091208054600182015460028301549383015460048401546005850154600686015460078701546008880180546001600160a01b039889169a978916999798969796909516959394929391926118e790611cfe565b80601f016020809104026020016040519081016040528092919081815260200182805461191390611cfe565b80156119605780601f1061193557610100808354040283529160200191611960565b820191906000526020600020905b81548152906001019060200180831161194357829003601f168201915b5050506009909301549192505060ff808216916101009004168b565b6002600054036119ce5760405162461bcd60e51b815260206004820152601f60248201527f5265656e7472616e637947756172643a207265656e7472616e742063616c6c0060448201526064016107dc565b6002600055565b6000806000606084860312156119ea57600080fd5b505081359360208301359350604090920135919050565b60008060408385031215611a1457600080fd5b50508035926020909101359150565b6001600160a01b0381168114610a4f57600080fd5b600060208284031215611a4a57600080fd5b8135611a5581611a23565b9392505050565b600060208284031215611a6e57600080fd5b5035919050565b6000815180845260005b81811015611a9b57602081850181015186830182015201611a7f565b506000602082860101526020601f19601f83011685010191505092915050565b60a081526000611ace60a0830188611a75565b8281036020840152611ae08188611a75565b90508560408401528281036060840152611afa8186611a75565b91505082151560808301529695505050505050565b634e487b7160e01b600052604160045260246000fd5b600082601f830112611b3657600080fd5b813567ffffffffffffffff80821115611b5157611b51611b0f565b604051601f8301601f19908116603f01168101908282118183101715611b7957611b79611b0f565b81604052838152866020858801011115611b9257600080fd5b836020870160208301376000602085830101528094505050505092915050565b60008060008060808587031215611bc857600080fd5b843567ffffffffffffffff80821115611be057600080fd5b611bec88838901611b25565b95506020870135915080821115611c0257600080fd5b611c0e88838901611b25565b9450604087013593506060870135915080821115611c2b57600080fd5b50611c3887828801611b25565b91505092959194509250565b60006101606001600160a01b03808f168452808e1660208501528c60408501528b6060850152808b166080850152508860a08401528760c08401528660e084015280610100840152611c9881840187611a75565b9415156101208401525050901515610140909101529998505050505050505050565b600060208284031215611ccc57600080fd5b8151611a5581611a23565b600060018201611cf757634e487b7160e01b600052601160045260246000fd5b5060010190565b600181811c90821680611d1257607f821691505b602082108103611d3257634e487b7160e01b600052602260045260246000fd5b50919050565b601f821115611d84576000816000526020600020601f850160051c81016020861015611d615750805b601f850160051c820191505b81811015611d8057828155600101611d6d565b5050505b505050565b815167ffffffffffffffff811115611da357611da3611b0f565b611db781611db18454611cfe565b84611d38565b602080601f831160018114611dec5760008415611dd45750858301515b600019600386901b1c1916600185901b178555611d80565b600085815260208120601f198616915b82811015611e1b57888601518255948401946001909101908401611dfc565b5085821015611e395787850151600019600388901b60f8161c191681555b5050505050600190811b0190555056fea2646970667358221220dbef510151c9e1ebb2dd1bae8ee7b47c11f13c0b14f2ac676bfa3d5ad9618b1764736f6c63430008160033",
  "linkReferences": {},
  "deployedLinkReferences": {}
}