{
  "_format": "hh-sol-artifact-1",
  "contractName": "FoodTraceabilityMarketplace",
  "sourceName": "contracts/FoodTraceabilityMarketplace.sol",
  "abi": [
    {
      "inputs": [],
      "name": "NFT_alreadyListed",
      "type": "error"
    },
    {
      "inputs": [],
      "name": "NftIsNotApproved",
      "type": "error"
    },
    {
      "inputs": [],
      "name": "PleaseSendCorreactPrice",
      "type": "error"
    },
    {
      "inputs": [],
      "name": "TransferFailed",
      "type": "error"
    },
    {
      "anonymous": false,
      "inputs": [
        {
          "indexed": true,
          "internalType": "address",
          "name": "buyer",
          "type": "address"
        },
        {
          "indexed": true,
          "internalType": "address",
          "name": "nftAddress",
          "type": "address"
        },
        {
          "indexed": true,
          "internalType": "uint256",
          "name": "tokenId",
          "type": "uint256"
        },
        {
          "indexed": false,
          "internalType": "uint256",
          "name": "price",
          "type": "uint256"
        }
      ],
      "name": "ItemBought",
      "type": "event"
    },
    {
      "anonymous": false,
      "inputs": [
        {
          "indexed": true,
          "internalType": "address",
          "name": "seller",
          "type": "address"
        },
        {
          "indexed": true,
          "internalType": "address",
          "name": "nftAddress",
          "type": "address"
        },
        {
          "indexed": true,
          "internalType": "uint256",
          "name": "tokenId",
          "type": "uint256"
        }
      ],
      "name": "ItemCanceled",
      "type": "event"
    },
    {
      "anonymous": false,
      "inputs": [
        {
          "indexed": true,
          "internalType": "address",
          "name": "seller",
          "type": "address"
        },
        {
          "indexed": true,
          "internalType": "address",
          "name": "nftAddress",
          "type": "address"
        },
        {
          "indexed": true,
          "internalType": "uint256",
          "name": "tokenId",
          "type": "uint256"
        },
        {
          "indexed": false,
          "internalType": "uint256",
          "name": "price",
          "type": "uint256"
        }
      ],
      "name": "ItemListed",
      "type": "event"
    },
    {
      "inputs": [],
      "name": "ListdItems",
      "outputs": [
        {
          "internalType": "uint256",
          "name": "",
          "type": "uint256"
        }
      ],
      "stateMutability": "view",
      "type": "function"
    },
    {
      "inputs": [
        {
          "internalType": "address",
          "name": "",
          "type": "address"
        },
        {
          "internalType": "uint256",
          "name": "",
          "type": "uint256"
        }
      ],
      "name": "_auctionDetail",
      "outputs": [
        {
          "internalType": "address payable",
          "name": "seller",
          "type": "address"
        },
        {
          "internalType": "uint256",
          "name": "basePrice",
          "type": "uint256"
        },
        {
          "internalType": "address",
          "name": "highestBidder",
          "type": "address"
        },
        {
          "internalType": "uint256",
          "name": "highestBid",
          "type": "uint256"
        },
        {
          "internalType": "uint256",
          "name": "endTime",
          "type": "uint256"
        },
        {
          "internalType": "uint256",
          "name": "starTime",
          "type": "uint256"
        },
        {
          "internalType": "bool",
          "name": "ended",
          "type": "bool"
        },
        {
          "internalType": "bool",
          "name": "auction",
          "type": "bool"
        }
      ],
      "stateMutability": "view",
      "type": "function"
    },
    {
      "inputs": [
        {
          "internalType": "address",
          "name": "_nft",
          "type": "address"
        },
        {
          "internalType": "uint256",
          "name": "_tokenId",
          "type": "uint256"
        }
      ],
      "name": "_checkAuctionStatus",
      "outputs": [
        {
          "internalType": "bool",
          "name": "",
          "type": "bool"
        }
      ],
      "stateMutability": "view",
      "type": "function"
    },
    {
      "inputs": [
        {
          "internalType": "address",
          "name": "_nft",
          "type": "address"
        },
        {
          "internalType": "uint256",
          "name": "_tokenId",
          "type": "uint256"
        }
      ],
      "name": "bid",
      "outputs": [],
      "stateMutability": "payable",
      "type": "function"
    },
    {
      "inputs": [
        {
          "internalType": "address",
          "name": "_nft",
          "type": "address"
        },
        {
          "internalType": "uint256",
          "name": "_tokenId",
          "type": "uint256"
        }
      ],
      "name": "buyItem",
      "outputs": [],
      "stateMutability": "payable",
      "type": "function"
    },
    {
      "inputs": [
        {
          "internalType": "address",
          "name": "_nft",
          "type": "address"
        },
        {
          "internalType": "uint256",
          "name": "_tokenId",
          "type": "uint256"
        }
      ],
      "name": "cancellAuction",
      "outputs": [],
      "stateMutability": "nonpayable",
      "type": "function"
    },
    {
      "inputs": [
        {
          "internalType": "uint256",
          "name": "",
          "type": "uint256"
        }
      ],
      "name": "collection",
      "outputs": [
        {
          "internalType": "address",
          "name": "",
          "type": "address"
        }
      ],
      "stateMutability": "view",
      "type": "function"
    },
    {
      "inputs": [
        {
          "internalType": "address",
          "name": "_nft",
          "type": "address"
        },
        {
          "internalType": "uint256",
          "name": "_tokenId",
          "type": "uint256"
        },
        {
          "internalType": "address",
          "name": "_token",
          "type": "address"
        }
      ],
      "name": "concludeAuction",
      "outputs": [],
      "stateMutability": "nonpayable",
      "type": "function"
    },
    {
      "inputs": [
        {
          "internalType": "address",
          "name": "_nft",
          "type": "address"
        },
        {
          "internalType": "uint256",
          "name": "_tokenId",
          "type": "uint256"
        },
        {
          "internalType": "uint256",
          "name": "_basePrice",
          "type": "uint256"
        },
        {
          "internalType": "uint256",
          "name": "_endTime",
          "type": "uint256"
        }
      ],
      "name": "createAuction",
      "outputs": [],
      "stateMutability": "nonpayable",
      "type": "function"
    },
    {
      "inputs": [
        {
          "internalType": "address",
          "name": "_nft",
          "type": "address"
        },
        {
          "internalType": "uint256",
          "name": "_tokenId",
          "type": "uint256"
        }
      ],
      "name": "getHighestBid",
      "outputs": [
        {
          "internalType": "uint256",
          "name": "",
          "type": "uint256"
        }
      ],
      "stateMutability": "view",
      "type": "function"
    },
    {
      "inputs": [
        {
          "internalType": "address",
          "name": "_nft",
          "type": "address"
        },
        {
          "internalType": "uint256",
          "name": "_tokenId",
          "type": "uint256"
        }
      ],
      "name": "getHighestBidder",
      "outputs": [
        {
          "internalType": "address",
          "name": "",
          "type": "address"
        }
      ],
      "stateMutability": "view",
      "type": "function"
    },
    {
      "inputs": [
        {
          "internalType": "address",
          "name": "_nft",
          "type": "address"
        },
        {
          "internalType": "uint256",
          "name": "_tokenId",
          "type": "uint256"
        }
      ],
      "name": "getLastTime",
      "outputs": [
        {
          "internalType": "uint256",
          "name": "",
          "type": "uint256"
        }
      ],
      "stateMutability": "view",
      "type": "function"
    },
    {
      "inputs": [
        {
          "internalType": "address",
          "name": "_nft",
          "type": "address"
        },
        {
          "internalType": "uint256",
          "name": "_tokenId",
          "type": "uint256"
        }
      ],
      "name": "isAuction",
      "outputs": [
        {
          "internalType": "bool",
          "name": "",
          "type": "bool"
        }
      ],
      "stateMutability": "view",
      "type": "function"
    },
    {
      "inputs": [
        {
          "internalType": "address",
          "name": "_address",
          "type": "address"
        }
      ],
      "name": "isUser",
      "outputs": [
        {
          "internalType": "bool",
          "name": "",
          "type": "bool"
        }
      ],
      "stateMutability": "view",
      "type": "function"
    },
    {
      "inputs": [
        {
          "internalType": "address",
          "name": "",
          "type": "address"
        },
        {
          "internalType": "uint256",
          "name": "",
          "type": "uint256"
        }
      ],
      "name": "listing",
      "outputs": [
        {
          "internalType": "address payable",
          "name": "seller",
          "type": "address"
        },
        {
          "internalType": "uint256",
          "name": "price",
          "type": "uint256"
        },
        {
          "internalType": "bool",
          "name": "sale",
          "type": "bool"
        },
        {
          "internalType": "bool",
          "name": "listed",
          "type": "bool"
        }
      ],
      "stateMutability": "view",
      "type": "function"
    },
    {
      "inputs": [
        {
          "internalType": "string",
          "name": "_name",
          "type": "string"
        },
        {
          "internalType": "string",
          "name": "_email",
          "type": "string"
        },
        {
          "internalType": "uint256",
          "name": "_phone_number",
          "type": "uint256"
        },
        {
          "internalType": "string",
          "name": "_role",
          "type": "string"
        }
      ],
      "name": "registerAsUser",
      "outputs": [],
      "stateMutability": "nonpayable",
      "type": "function"
    },
    {
      "inputs": [
        {
          "internalType": "address",
          "name": "",
          "type": "address"
        }
      ],
      "name": "registerationAccount",
      "outputs": [
        {
          "internalType": "string",
          "name": "name",
          "type": "string"
        },
        {
          "internalType": "string",
          "name": "email",
          "type": "string"
        },
        {
          "internalType": "uint256",
          "name": "phone_number",
          "type": "uint256"
        },
        {
          "internalType": "string",
          "name": "role",
          "type": "string"
        },
        {
          "internalType": "bool",
          "name": "isRegister",
          "type": "bool"
        }
      ],
      "stateMutability": "view",
      "type": "function"
    },
    {
      "inputs": [
        {
          "internalType": "address",
          "name": "_nft",
          "type": "address"
        },
        {
          "internalType": "uint256",
          "name": "_tokenId",
          "type": "uint256"
        },
        {
          "internalType": "uint256",
          "name": "_price",
          "type": "uint256"
        }
      ],
      "name": "sellItem",
      "outputs": [],
      "stateMutability": "nonpayable",
      "type": "function"
    },
    {
      "inputs": [],
      "name": "totalAuctionSale",
      "outputs": [
        {
          "internalType": "uint256",
          "name": "",
          "type": "uint256"
        }
      ],
      "stateMutability": "view",
      "type": "function"
    }
  ],
  "bytecode": "0x608060405234801561001057600080fd5b506001600055612238806100256000396000f3fe6080604052600436106101445760003560e01c80638226508d116100c0578063a670a9b411610074578063d712c1e611610059578063d712c1e614610525578063d9a0cbb9146105d4578063f0772377146105f457600080fd5b8063a670a9b414610443578063d48351a91461050557600080fd5b80639753b644116100a55780639753b644146103df5780639f37092a14610410578063a4cfca051461042357600080fd5b80638226508d146103305780638de820f61461035057600080fd5b806361beb1d7116101175780636ae50a22116100fc5780636ae50a22146102da5780637621f5c4146102fa578063784d53421461031057600080fd5b806361beb1d71461029a57806368915327146102ba57600080fd5b80633cc6221a146101495780634209fff11461021557806344ac0c411461026157806359d667a514610285575b600080fd5b34801561015557600080fd5b506101c2610164366004611d51565b6005602081815260009384526040808520909152918352912080546001820154600283015460038401546004850154958501546006909501546001600160a01b03948516969395949092169390929160ff8082169161010090041688565b604080516001600160a01b03998a168152602081019890985295909716948601949094526060850192909252608084015260a0830152151560c082015290151560e0820152610100015b60405180910390f35b34801561022157600080fd5b50610251610230366004611d7d565b6001600160a01b031660009081526006602052604090206004015460ff1690565b604051901515815260200161020c565b34801561026d57600080fd5b5061027760015481565b60405190815260200161020c565b610298610293366004611d51565b610614565b005b3480156102a657600080fd5b506102986102b5366004611da1565b61093f565b3480156102c657600080fd5b506102986102d5366004611ddc565b610c69565b3480156102e657600080fd5b506102986102f5366004611d51565b610ef6565b34801561030657600080fd5b5061027760025481565b34801561031c57600080fd5b5061029861032b366004611e11565b6110e6565b34801561033c57600080fd5b5061027761034b366004611d51565b611468565b34801561035c57600080fd5b506103ad61036b366004611d51565b60046020908152600092835260408084209091529082529020805460018201546002909201546001600160a01b03909116919060ff8082169161010090041684565b604080516001600160a01b0390951685526020850193909352901515918301919091521515606082015260800161020c565b3480156103eb57600080fd5b506103ff6103fa366004611d7d565b611501565b60405161020c959493929190611e99565b61029861041e366004611d51565b6116ca565b34801561042f57600080fd5b5061029861043e366004611f90565b6118c7565b34801561044f57600080fd5b506104ed61045e366004611d51565b6001600160a01b0391821660009081526005602081815260408084209484529381529183902083516101008082018652825487168252600183015494820194909452600282015490951693850184905260038101546060860152600481015460808601529081015460a08501526006015460ff808216151560c086015291900416151560e09092019190915290565b6040516001600160a01b03909116815260200161020c565b34801561051157600080fd5b50610251610520366004611d51565b6119c6565b34801561053157600080fd5b50610277610540366004611d51565b6001600160a01b0391821660009081526005602081815260408084209484529381529183902083516101008082018652825487168252600183015494820194909452600282015490951693850193909352600383015460608501526004830154608085018190529083015460a085015260069092015460ff808216151560c086015291900416151560e09092019190915290565b3480156105e057600080fd5b506102516105ef366004611d51565b611ad1565b34801561060057600080fd5b506104ed61060f366004612022565b611b19565b61061c611b43565b6001600160a01b03821660009081526005602090815260408083208484529091529020600681015460ff16156106995760405162461bcd60e51b815260206004820152601160248201527f41756374696f6e2068617320656e64656400000000000000000000000000000060448201526064015b60405180910390fd5b80546001600160a01b03166106f05760405162461bcd60e51b815260206004820152601660248201527f41756374696f6e20646f6573206e6f74206578697374000000000000000000006044820152606401610690565b6106fa8383611b9c565b80600401544210156108e85734816003015410801561071d575034816001015411155b61078f5760405162461bcd60e51b815260206004820152603e60248201527f426964206d75737420626520686967686572207468616e20746865206375727260448201527f656e7420686967686573742062696420616e64206261736520707269636500006064820152608401610690565b80546001600160a01b0316330361080e5760405162461bcd60e51b815260206004820152602260248201527f596f752063616e6e6f742062696420696e20796f7572206f776e20617563746960448201527f6f6e0000000000000000000000000000000000000000000000000000000000006064820152608401610690565b60028101546001600160a01b031680156108c85760038201546040516000916001600160a01b038416918381818185875af1925050503d8060008114610870576040519150601f19603f3d011682016040523d82523d6000602084013e610875565b606091505b50509050806108c65760405162461bcd60e51b815260206004820181905260248201527f4661696c656420746f20726566756e642070726576696f7573206269646465726044820152606401610690565b505b503460038201556002810180546001600160a01b03191633179055610930565b60405162461bcd60e51b815260206004820152601960248201527f41756374696f6e2068617320616c726561647920656e646564000000000000006044820152606401610690565b5061093b6001600055565b5050565b60405163020604bf60e21b81526004810184905230906001600160a01b0386169063081812fc90602401602060405180830381865afa158015610986573d6000803e3d6000fd5b505050506040513d601f19601f820116820180604052508101906109aa919061203b565b6001600160a01b0316146109d157604051630a3492e360e31b815260040160405180910390fd5b600180549060006109e183612058565b9190505550604051806101000160405280336001600160a01b0316815260200183815260200160006001600160a01b03168152602001600081526020018281526020014281526020016000151581526020016001151581525060056000866001600160a01b03166001600160a01b03168152602001908152602001600020600085815260200190815260200160002060008201518160000160006101000a8154816001600160a01b0302191690836001600160a01b031602179055506020820151816001015560408201518160020160006101000a8154816001600160a01b0302191690836001600160a01b03160217905550606082015181600301556080820151816004015560a0820151816005015560c08201518160060160006101000a81548160ff02191690831515021790555060e08201518160060160016101000a81548160ff0219169083151502179055509050506040518060800160405280336001600160a01b031681526020018381526020016000151581526020016001151581525060046000866001600160a01b03166001600160a01b03168152602001908152602001600020600085815260200190815260200160002060008201518160000160006101000a8154816001600160a01b0302191690836001600160a01b031602179055506020820151816001015560408201518160020160006101000a81548160ff02191690831515021790555060608201518160020160016101000a81548160ff02191690831515021790555090505082846001600160a01b0316336001600160a01b03167fd547e933094f12a9159076970143ebe73234e64480317844b0dcb36117116de485604051610c5b91815260200190565b60405180910390a450505050565b6001600160a01b0383166000908152600460209081526040808320858452909152902060020154610100900460ff161515600103610cd3576040517f90c2044b00000000000000000000000000000000000000000000000000000000815260040160405180910390fd5b60405163020604bf60e21b81526004810183905230906001600160a01b0385169063081812fc90602401602060405180830381865afa158015610d1a573d6000803e3d6000fd5b505050506040513d601f19601f82011682018060405250810190610d3e919061203b565b6001600160a01b031614610d6557604051630a3492e360e31b815260040160405180910390fd5b60018054906000610d7583612058565b909155505060408051608081018252338152602080820184815260008385018181526001606086018181526001600160a01b038b81168552600487528885208b8652909652968320955186546001600160a01b03191695169490941785559151928401929092555160029092018054935161ffff1990941692151561ff0019169290921761010093151593909302929092179055805b600354811015610e5957846001600160a01b031660038281548110610e3257610e3261207f565b6000918252602090912001546001600160a01b031603610e5157600191505b600101610e0b565b50801515600003610eb057600380546001810182556000919091527fc2575a0e9e593c00f959f8c92f12db2869c3395a3b0502d05e2516446f71f85b0180546001600160a01b0319166001600160a01b0386161790555b82846001600160a01b0316336001600160a01b03167fd547e933094f12a9159076970143ebe73234e64480317844b0dcb36117116de485604051610c5b91815260200190565b6001600160a01b038083166000908152600560208181526040808420868552808352818520825161010080820185528254891680835260018401548388015260028401549099169482019490945260038201546060820152600482015460808201529481015460a08601526006015460ff808216151560c0870152929004909116151560e08401529285905291909152903314610fd55760405162461bcd60e51b815260206004820152601d60248201527f596f7520617265206e6f74204f776e6572206f662074686973204e46540000006044820152606401610690565b428160800151106110285760405162461bcd60e51b815260206004820152601660248201527f41756374696f6e2054696d652072656d61696e696e67000000000000000000006044820152606401610690565b600061103484846119c6565b905080611045576110458484611b9c565b50506001600160a01b03918216600090815260046020908152604080832084845280835281842082516080810184528154808916825260018301805483880190815260028501805460ff81161515988601988952606086018b81529b909a529590975291519098166001600160a01b031990981697909717905591519094559251915115156101000261ff00199215159290921661ffff1990911617179055565b6001600160a01b03808416600090815260056020818152604080842087855282529283902083516101008082018652825487168252600183015493820193909352600282015490951693850184905260038101546060860152600481015460808601529182015460a085015260069091015460ff808216151560c086015291900416151560e083015233146111e35760405162461bcd60e51b815260206004820152602e60248201527f596f7520617265206e6f7420617574686f72697a656420746f20636f6e636c7560448201527f6465207468652061756374696f6e0000000000000000000000000000000000006064820152608401610690565b428160800151106112365760405162461bcd60e51b815260206004820152601660248201527f41756374696f6e2054696d652072656d61696e696e67000000000000000000006044820152606401610690565b600061124285856119c6565b905080611253576112538585611b9c565b6001600160a01b0385811660008181526004602081815260408084208a8552825292839020835160808101855281549096168087526001820154928701929092526002015460ff808216151587860152610100909104161515606086015291516323b872dd60e01b815290810191909152336024820152604481018790526323b872dd90606401600060405180830381600087803b1580156112f457600080fd5b505af1158015611308573d6000803e3d6000fd5b50506001604084810191909152858101518451606088015192516323b872dd60e01b81526001600160a01b03928316600482015290821660248201526044810192909252871692506323b872dd91506064016020604051808303816000875af1158015611379573d6000803e3d6000fd5b505050506040513d601f19601f8201168201806040525081019061139d9190612095565b50600280549060006113ae83612058565b90915550506001600160a01b0386811660008181526004602090815260408083208a8452825291829020855181546001600160a01b0319169516949094178455848101516001850155848201516002909401805460608088015161ffff1990921696151561ff0019169690961761010091151591909102179055928601519051908152879233917f263223b1dd81e51054a4e6f791d45a4a1ddb4aadcd93a2dfd892615c3fdac187910160405180910390a4505050505050565b6001600160a01b03808316600090815260056020818152604080842086855282529283902083516101008082018652825487168252600183015493820193909352600282015490951693850193909352600383015460608501819052600484015460808601529183015460a085015260069092015460ff808216151560c0860152929004909116151560e0909201919091525b92915050565b60066020526000908152604090208054819061151c906120b7565b80601f0160208091040260200160405190810160405280929190818152602001828054611548906120b7565b80156115955780601f1061156a57610100808354040283529160200191611595565b820191906000526020600020905b81548152906001019060200180831161157857829003601f168201915b5050505050908060010180546115aa906120b7565b80601f01602080910402602001604051908101604052809291908181526020018280546115d6906120b7565b80156116235780601f106115f857610100808354040283529160200191611623565b820191906000526020600020905b81548152906001019060200180831161160657829003601f168201915b50505050509080600201549080600301805461163e906120b7565b80601f016020809104026020016040519081016040528092919081815260200182805461166a906120b7565b80156116b75780601f1061168c576101008083540402835291602001916116b7565b820191906000526020600020905b81548152906001019060200180831161169a57829003601f168201915b5050506004909301549192505060ff1685565b6001600160a01b03821660009081526004602090815260408083208484529091529020600181015434101561172b576040517fa58aac5400000000000000000000000000000000000000000000000000000000815260040160405180910390fd5b80546040516000916001600160a01b03169034908381818185875af1925050503d8060008114611777576040519150601f19603f3d011682016040523d82523d6000602084013e61177c565b606091505b50509050806117b7576040517f90b8ec1800000000000000000000000000000000000000000000000000000000815260040160405180910390fd5b60028201805461ffff1916600117905581546040517f42842e0e0000000000000000000000000000000000000000000000000000000081526001600160a01b03918216600482015233602482015260448101859052908516906342842e0e90606401600060405180830381600087803b15801561183357600080fd5b505af1158015611847573d6000803e3d6000fd5b505050506001600160a01b0384166000818152600460209081526040808320878452825280832080546001600160a01b0319168155600180820194909455600201805461ffff1916905591850154915191825285929133917f263223b1dd81e51054a4e6f791d45a4a1ddb4aadcd93a2dfd892615c3fdac1879101610c5b565b3360009081526006602052604090206004015460ff161561192a5760405162461bcd60e51b815260206004820152601a60248201527f596f752061726520616c726561647920726567697374657265640000000000006044820152606401610690565b6040805160a08101825285815260208082018690528183018590526060820184905260016080830152336000908152600690915291909120815181906119709082612142565b50602082015160018201906119859082612142565b5060408201516002820155606082015160038201906119a49082612142565b50608091909101516004909101805460ff191691151591909117905550505050565b6001600160a01b0380831660009081526005602081815260408084208685528252808420815161010080820184528254881680835260018401549583019590955260028301549097169281019290925260038101546060830152600481015460808301529283015460a082015260069092015460ff808216151560c0850152949004909316151560e08201529091611ac65760405162461bcd60e51b815260206004820152602760248201527f41756374696f6e20666f722074686973204e4654206973206e6f7420696e207060448201527f726f6772657373000000000000000000000000000000000000000000000000006064820152608401610690565b60c001519392505050565b6001600160a01b0382166000908152600560209081526040808320848452909152812060060154610100900460ff161515600103611b11575060016114fb565b5060006114fb565b60038181548110611b2957600080fd5b6000918252602090912001546001600160a01b0316905081565b600260005403611b955760405162461bcd60e51b815260206004820152601f60248201527f5265656e7472616e637947756172643a207265656e7472616e742063616c6c006044820152606401610690565b6002600055565b6001600160a01b0380831660009081526005602081815260408084208685528252928390208351610100808201865282548716825260018301549382019390935260028201549095169385019390935260038301546060850152600483015460808501529082015460a084015260069091015460ff80821615801560c08601529290910416151560e0830152611c745760405162461bcd60e51b815260206004820152601660248201527f546869732061756374696f6e2068617320456e646564000000000000000000006044820152606401610690565b8060800151421115611c8857600160c08201525b6001600160a01b03928316600090815260056020818152604080842095845294815291849020835181549087166001600160a01b03199182161782559284015160018201559383015160028501805491909616921691909117909355606081015160038301556080810151600483015560a08101519282019290925560c08201516006909101805460e09093015115156101000261ff0019921515831661ffff199094169390931792909217169055565b6001600160a01b0381168114611d4e57600080fd5b50565b60008060408385031215611d6457600080fd5b8235611d6f81611d39565b946020939093013593505050565b600060208284031215611d8f57600080fd5b8135611d9a81611d39565b9392505050565b60008060008060808587031215611db757600080fd5b8435611dc281611d39565b966020860135965060408601359560600135945092505050565b600080600060608486031215611df157600080fd5b8335611dfc81611d39565b95602085013595506040909401359392505050565b600080600060608486031215611e2657600080fd5b8335611e3181611d39565b9250602084013591506040840135611e4881611d39565b809150509250925092565b6000815180845260005b81811015611e7957602081850181015186830182015201611e5d565b506000602082860101526020601f19601f83011685010191505092915050565b60a081526000611eac60a0830188611e53565b8281036020840152611ebe8188611e53565b90508560408401528281036060840152611ed88186611e53565b91505082151560808301529695505050505050565b634e487b7160e01b600052604160045260246000fd5b600082601f830112611f1457600080fd5b813567ffffffffffffffff80821115611f2f57611f2f611eed565b604051601f8301601f19908116603f01168101908282118183101715611f5757611f57611eed565b81604052838152866020858801011115611f7057600080fd5b836020870160208301376000602085830101528094505050505092915050565b60008060008060808587031215611fa657600080fd5b843567ffffffffffffffff80821115611fbe57600080fd5b611fca88838901611f03565b95506020870135915080821115611fe057600080fd5b611fec88838901611f03565b945060408701359350606087013591508082111561200957600080fd5b5061201687828801611f03565b91505092959194509250565b60006020828403121561203457600080fd5b5035919050565b60006020828403121561204d57600080fd5b8151611d9a81611d39565b60006001820161207857634e487b7160e01b600052601160045260246000fd5b5060010190565b634e487b7160e01b600052603260045260246000fd5b6000602082840312156120a757600080fd5b81518015158114611d9a57600080fd5b600181811c908216806120cb57607f821691505b6020821081036120eb57634e487b7160e01b600052602260045260246000fd5b50919050565b601f82111561213d576000816000526020600020601f850160051c8101602086101561211a5750805b601f850160051c820191505b8181101561213957828155600101612126565b5050505b505050565b815167ffffffffffffffff81111561215c5761215c611eed565b6121708161216a84546120b7565b846120f1565b602080601f8311600181146121a5576000841561218d5750858301515b600019600386901b1c1916600185901b178555612139565b600085815260208120601f198616915b828110156121d4578886015182559484019460019091019084016121b5565b50858210156121f25787850151600019600388901b60f8161c191681555b5050505050600190811b0190555056fea2646970667358221220ed28fd1cd84c568e964e68356fd3e19b6dc624ab4d798ece00056dc0752c844864736f6c63430008160033",
  "linkReferences": {},
  "deployedLinkReferences": {}
}