{
  "_format": "hh-sol-artifact-1",
  "contractName": "FoodTraceabilityMarketplace",
  "sourceName": "contracts/FoodTraceabilityMarketplace.sol",
  "abi": [
    {
      "inputs": [
        {
          "internalType": "address",
          "name": "_nft",
          "type": "address"
        }
      ],
      "stateMutability": "nonpayable",
      "type": "constructor"
    },
    {
      "inputs": [],
      "name": "NFT_alreadyListed",
      "type": "error"
    },
    {
      "inputs": [],
      "name": "NftIsNotApproved",
      "type": "error"
    },
    {
      "inputs": [],
      "name": "PleaseSendCorreactPrice",
      "type": "error"
    },
    {
      "inputs": [],
      "name": "TransferFailed",
      "type": "error"
    },
    {
      "anonymous": false,
      "inputs": [
        {
          "indexed": true,
          "internalType": "address",
          "name": "buyer",
          "type": "address"
        },
        {
          "indexed": true,
          "internalType": "address",
          "name": "nftAddress",
          "type": "address"
        },
        {
          "indexed": true,
          "internalType": "uint256",
          "name": "tokenId",
          "type": "uint256"
        },
        {
          "indexed": false,
          "internalType": "uint256",
          "name": "price",
          "type": "uint256"
        }
      ],
      "name": "ItemBought",
      "type": "event"
    },
    {
      "anonymous": false,
      "inputs": [
        {
          "indexed": true,
          "internalType": "address",
          "name": "seller",
          "type": "address"
        },
        {
          "indexed": true,
          "internalType": "address",
          "name": "nftAddress",
          "type": "address"
        },
        {
          "indexed": true,
          "internalType": "uint256",
          "name": "tokenId",
          "type": "uint256"
        }
      ],
      "name": "ItemCanceled",
      "type": "event"
    },
    {
      "anonymous": false,
      "inputs": [
        {
          "indexed": true,
          "internalType": "address",
          "name": "seller",
          "type": "address"
        },
        {
          "indexed": true,
          "internalType": "address",
          "name": "nftAddress",
          "type": "address"
        },
        {
          "indexed": true,
          "internalType": "uint256",
          "name": "tokenId",
          "type": "uint256"
        },
        {
          "indexed": false,
          "internalType": "uint256",
          "name": "price",
          "type": "uint256"
        }
      ],
      "name": "ItemListed",
      "type": "event"
    },
    {
      "inputs": [],
      "name": "ListdItems",
      "outputs": [
        {
          "internalType": "uint256",
          "name": "",
          "type": "uint256"
        }
      ],
      "stateMutability": "view",
      "type": "function"
    },
    {
      "inputs": [],
      "name": "NFTContract",
      "outputs": [
        {
          "internalType": "contract IERC721",
          "name": "",
          "type": "address"
        }
      ],
      "stateMutability": "view",
      "type": "function"
    },
    {
      "inputs": [
        {
          "internalType": "uint256",
          "name": "_itemId",
          "type": "uint256"
        }
      ],
      "name": "_checkItemsStatus",
      "outputs": [
        {
          "internalType": "bool",
          "name": "",
          "type": "bool"
        }
      ],
      "stateMutability": "view",
      "type": "function"
    },
    {
      "inputs": [
        {
          "internalType": "uint256",
          "name": "_itemId",
          "type": "uint256"
        }
      ],
      "name": "bid",
      "outputs": [],
      "stateMutability": "payable",
      "type": "function"
    },
    {
      "inputs": [
        {
          "internalType": "uint256",
          "name": "_itemId",
          "type": "uint256"
        }
      ],
      "name": "buyItem",
      "outputs": [],
      "stateMutability": "payable",
      "type": "function"
    },
    {
      "inputs": [
        {
          "internalType": "uint256",
          "name": "_itemId",
          "type": "uint256"
        }
      ],
      "name": "cancellItems",
      "outputs": [],
      "stateMutability": "nonpayable",
      "type": "function"
    },
    {
      "inputs": [
        {
          "internalType": "uint256",
          "name": "_itemId",
          "type": "uint256"
        }
      ],
      "name": "concludeItems",
      "outputs": [],
      "stateMutability": "nonpayable",
      "type": "function"
    },
    {
      "inputs": [
        {
          "internalType": "uint256",
          "name": "_tokenId",
          "type": "uint256"
        },
        {
          "internalType": "uint256",
          "name": "_basePrice",
          "type": "uint256"
        },
        {
          "internalType": "uint256",
          "name": "_endTime",
          "type": "uint256"
        }
      ],
      "name": "createItems",
      "outputs": [],
      "stateMutability": "nonpayable",
      "type": "function"
    },
    {
      "inputs": [
        {
          "internalType": "address",
          "name": "_address",
          "type": "address"
        }
      ],
      "name": "isUser",
      "outputs": [
        {
          "internalType": "bool",
          "name": "",
          "type": "bool"
        }
      ],
      "stateMutability": "view",
      "type": "function"
    },
    {
      "inputs": [
        {
          "internalType": "uint256",
          "name": "",
          "type": "uint256"
        }
      ],
      "name": "listedItemDetails",
      "outputs": [
        {
          "internalType": "address payable",
          "name": "seller",
          "type": "address"
        },
        {
          "internalType": "address",
          "name": "nftContract",
          "type": "address"
        },
        {
          "internalType": "uint256",
          "name": "tokenId",
          "type": "uint256"
        },
        {
          "internalType": "uint256",
          "name": "basePrice",
          "type": "uint256"
        },
        {
          "internalType": "address",
          "name": "highestBidder",
          "type": "address"
        },
        {
          "internalType": "uint256",
          "name": "highestBid",
          "type": "uint256"
        },
        {
          "internalType": "uint256",
          "name": "endTime",
          "type": "uint256"
        },
        {
          "internalType": "uint256",
          "name": "starTime",
          "type": "uint256"
        },
        {
          "internalType": "string",
          "name": "sallerRole",
          "type": "string"
        },
        {
          "internalType": "bool",
          "name": "isAuction",
          "type": "bool"
        },
        {
          "internalType": "bool",
          "name": "isListedOnSale",
          "type": "bool"
        }
      ],
      "stateMutability": "view",
      "type": "function"
    },
    {
      "inputs": [
        {
          "internalType": "uint256",
          "name": "",
          "type": "uint256"
        },
        {
          "internalType": "uint256",
          "name": "",
          "type": "uint256"
        }
      ],
      "name": "nftBuyHistory",
      "outputs": [
        {
          "internalType": "address",
          "name": "buyer",
          "type": "address"
        },
        {
          "internalType": "uint256",
          "name": "price",
          "type": "uint256"
        },
        {
          "internalType": "uint256",
          "name": "timestamp",
          "type": "uint256"
        }
      ],
      "stateMutability": "view",
      "type": "function"
    },
    {
      "inputs": [
        {
          "internalType": "string",
          "name": "_name",
          "type": "string"
        },
        {
          "internalType": "string",
          "name": "_email",
          "type": "string"
        },
        {
          "internalType": "uint256",
          "name": "_phone_number",
          "type": "uint256"
        },
        {
          "internalType": "string",
          "name": "_role",
          "type": "string"
        }
      ],
      "name": "registerAsUser",
      "outputs": [],
      "stateMutability": "nonpayable",
      "type": "function"
    },
    {
      "inputs": [
        {
          "internalType": "address",
          "name": "",
          "type": "address"
        }
      ],
      "name": "registerationAccount",
      "outputs": [
        {
          "internalType": "string",
          "name": "name",
          "type": "string"
        },
        {
          "internalType": "string",
          "name": "email",
          "type": "string"
        },
        {
          "internalType": "uint256",
          "name": "phone_number",
          "type": "uint256"
        },
        {
          "internalType": "string",
          "name": "role",
          "type": "string"
        },
        {
          "internalType": "bool",
          "name": "isRegister",
          "type": "bool"
        }
      ],
      "stateMutability": "view",
      "type": "function"
    },
    {
      "inputs": [
        {
          "internalType": "uint256",
          "name": "_itemId",
          "type": "uint256"
        },
        {
          "internalType": "uint256",
          "name": "_price",
          "type": "uint256"
        },
        {
          "internalType": "uint256",
          "name": "_endTime",
          "type": "uint256"
        },
        {
          "internalType": "bool",
          "name": "_isAuction",
          "type": "bool"
        }
      ],
      "name": "sellItem",
      "outputs": [],
      "stateMutability": "nonpayable",
      "type": "function"
    },
    {
      "inputs": [],
      "name": "totalItemsSale",
      "outputs": [
        {
          "internalType": "uint256",
          "name": "",
          "type": "uint256"
        }
      ],
      "stateMutability": "view",
      "type": "function"
    }
  ],
  "bytecode": "0x608060405234801561001057600080fd5b506040516200238c3803806200238c8339810160408190526100319161005b565b6001600055600680546001600160a01b0319166001600160a01b039290921691909117905561008b565b60006020828403121561006d57600080fd5b81516001600160a01b038116811461008457600080fd5b9392505050565b6122f1806200009b6000396000f3fe6080604052600436106100e85760003560e01c80637f8203751161008a578063a4cfca0511610059578063a4cfca05146102bc578063b614aeff146102dc578063e7fb74c7146102fc578063f63ca7ba1461030f57600080fd5b80637f820375146102065780638ac5c6121461022657806396c685881461026b5780639753b6441461028b57600080fd5b80634209fff1116100c65780634209fff11461017057806344ac0c41146101bd578063454a2ab3146101d3578063457e7d44146101e657600080fd5b806309b4480e146100ed5780630c9aff251461011657806331c2273b14610138575b600080fd5b3480156100f957600080fd5b5061010360025481565b6040519081526020015b60405180910390f35b34801561012257600080fd5b50610136610131366004611d26565b610346565b005b34801561014457600080fd5b50600654610158906001600160a01b031681565b6040516001600160a01b03909116815260200161010d565b34801561017c57600080fd5b506101ad61018b366004611d67565b6001600160a01b03166000908152600460208190526040909120015460ff1690565b604051901515815260200161010d565b3480156101c957600080fd5b5061010360015481565b6101366101e1366004611d8b565b610679565b3480156101f257600080fd5b506101ad610201366004611d8b565b6109b3565b34801561021257600080fd5b50610136610221366004611d8b565b610b6c565b34801561023257600080fd5b50610246610241366004611da4565b610e9f565b604080516001600160a01b03909416845260208401929092529082015260600161010d565b34801561027757600080fd5b50610136610286366004611d8b565b610eeb565b34801561029757600080fd5b506102ab6102a6366004611d67565b61149d565b60405161010d959493929190611e0c565b3480156102c857600080fd5b506101366102d7366004611f03565b611666565b3480156102e857600080fd5b506101366102f7366004611f95565b611766565b61013661030a366004611d8b565b611961565b34801561031b57600080fd5b5061032f61032a366004611d8b565b611bd5565b60405161010d9b9a99989796959493929190611fdb565b336000908152600460208190526040909120015460ff166103ae5760405162461bcd60e51b815260206004820152601e60248201527f596f75206861766520746f20726567697374657220796f75722073656c66000060448201526064015b60405180910390fd5b60065460405163020604bf60e21b81526004810185905230916001600160a01b03169063081812fc90602401602060405180830381865afa1580156103f7573d6000803e3d6000fd5b505050506040513d601f19601f8201168201806040525081019061041b9190612051565b6001600160a01b03161461044257604051630a3492e360e31b815260040160405180910390fd5b600180549060006104528361206e565b90915550506040805161016081018252338082526006546001600160a01b03166020808401919091528284018790526060830186905260006080840181905260a0840181905260c084018690524260e085015291825260049052919091206003018054610100830191906104c590612095565b80601f01602080910402602001604051908101604052809291908181526020018280546104f190612095565b801561053e5780601f106105135761010080835404028352916020019161053e565b820191906000526020600020905b81548152906001019060200180831161052157829003601f168201915b505050918352505060016020808301829052604092830182905281546000908152600380835290849020855181546001600160a01b039182166001600160a01b031991821617835593870151948201805495821695851695909517909455938501516002850155606085015190840155608084015160048401805491909316911617905560a0820151600582015560c0820151600682015560e0820151600782015561010082015160088201906105f59082612120565b50610120820151600990910180546101409093015115156101000261ff00199215159290921661ffff199093169290921717905560065460405184916001600160a01b03169033907fd547e933094f12a9159076970143ebe73234e64480317844b0dcb36117116de49061066c9087815260200190565b60405180910390a4505050565b610681611ccd565b336000908152600460208190526040909120015460ff166106e45760405162461bcd60e51b815260206004820152601e60248201527f596f75206861766520746f20726567697374657220796f75722073656c66000060448201526064016103a5565b6000818152600360205260409020600981015460ff166107465760405162461bcd60e51b815260206004820152601f60248201527f54686973206974656d206e6f74206c6973746564206f6e2061756374696f6e0060448201526064016103a5565b806006015442106107995760405162461bcd60e51b815260206004820152600e60248201527f4974656d2068617320656e64656400000000000000000000000000000000000060448201526064016103a5565b80546001600160a01b03166107f05760405162461bcd60e51b815260206004820152601360248201527f4974656d20646f6573206e6f742065786973740000000000000000000000000060448201526064016103a5565b348160050154108015610807575034816003015411155b6108795760405162461bcd60e51b815260206004820152603e60248201527f426964206d75737420626520686967686572207468616e20746865206375727260448201527f656e7420686967686573742062696420616e642062617365207072696365000060648201526084016103a5565b80546001600160a01b031633036108d25760405162461bcd60e51b815260206004820181905260248201527f596f752063616e6e6f742062696420696e20796f7572206f776e204974656d7360448201526064016103a5565b60048101546001600160a01b0316801561098c5760058201546040516000916001600160a01b038416918381818185875af1925050503d8060008114610934576040519150601f19603f3d011682016040523d82523d6000602084013e610939565b606091505b505090508061098a5760405162461bcd60e51b815260206004820181905260248201527f4661696c656420746f20726566756e642070726576696f75732062696464657260448201526064016103a5565b505b5034600582015560040180546001600160a01b031916331790556109b06001600055565b50565b600081815260036020818152604080842081516101608101835281546001600160a01b039081168252600183015481169482019490945260028201549281019290925292830154606082015260048301549091166080820152600582015460a0820152600682015460c0820152600782015460e0820152600882018054849391610100840191610a4290612095565b80601f0160208091040260200160405190810160405280929190818152602001828054610a6e90612095565b8015610abb5780601f10610a9057610100808354040283529160200191610abb565b820191906000526020600020905b815481529060010190602001808311610a9e57829003601f168201915b50505091835250506009919091015460ff80821615156020840152610100909104161515604090910152610140810151909150610b605760405162461bcd60e51b815260206004820152602560248201527f4974656d7320666f722074686973204e4654206973206e6f7420696e2070726f60448201527f677265737300000000000000000000000000000000000000000000000000000060648201526084016103a5565b60c00151421192915050565b336000908152600460208190526040909120015460ff16610bcf5760405162461bcd60e51b815260206004820152601e60248201527f596f75206861766520746f20726567697374657220796f75722073656c66000060448201526064016103a5565b600081815260036020818152604080842081516101608101835281546001600160a01b039081168252600183015481169482019490945260028201549281019290925292830154606082015260048301549091166080820152600582015460a0820152600682015460c0820152600782015460e082015260088201805491929161010084019190610c5f90612095565b80601f0160208091040260200160405190810160405280929190818152602001828054610c8b90612095565b8015610cd85780601f10610cad57610100808354040283529160200191610cd8565b820191906000526020600020905b815481529060010190602001808311610cbb57829003601f168201915b50505091835250506009919091015460ff8082161515602084015261010090910416151560409091015280519091506001600160a01b03163314610d5e5760405162461bcd60e51b815260206004820152601d60248201527f596f7520617265206e6f74204f776e6572206f662074686973204e465400000060448201526064016103a5565b428160c0015110610db15760405162461bcd60e51b815260206004820152601460248201527f4974656d732054696d652072656d61696e696e6700000000000000000000000060448201526064016103a5565b60006101408201819052610120820181905282815260036020818152604092839020845181546001600160a01b039182166001600160a01b03199182161783559286015160018301805491831691851691909117905593850151600282015560608501519281019290925560808401516004830180549190941691161790915560a0820151600582015560c0820151600682015560e082015160078201556101008201518291906008820190610e679082612120565b50610120820151600990910180546101409093015115156101000261ff00199215159290921661ffff19909316929092171790555050565b60056020528160005260406000208181548110610ebb57600080fd5b60009182526020909120600390910201805460018201546002909201546001600160a01b03909116935090915083565b336000908152600460208190526040909120015460ff16610f4e5760405162461bcd60e51b815260206004820152601e60248201527f596f75206861766520746f20726567697374657220796f75722073656c66000060448201526064016103a5565b600081815260036020818152604080842081516101608101835281546001600160a01b039081168252600183015481169482019490945260028201549281019290925292830154606082015260048301549091166080820152600582015460a0820152600682015460c0820152600782015460e082015260088201805491929161010084019190610fde90612095565b80601f016020809104026020016040519081016040528092919081815260200182805461100a90612095565b80156110575780601f1061102c57610100808354040283529160200191611057565b820191906000526020600020905b81548152906001019060200180831161103a57829003601f168201915b50505091835250506009919091015460ff8082161515602084015261010090910416151560409091015260808101519091506001600160a01b03163314806110a8575080516001600160a01b031633145b61111a5760405162461bcd60e51b815260206004820152602c60248201527f596f7520617265206e6f7420617574686f72697a656420746f20636f6e636c7560448201527f646520746865204974656d73000000000000000000000000000000000000000060648201526084016103a5565b428160c001511061116d5760405162461bcd60e51b815260206004820152601460248201527f4974656d732054696d652072656d61696e696e6700000000000000000000000060448201526064016103a5565b600654815160408084015190517f23b872dd0000000000000000000000000000000000000000000000000000000081526001600160a01b03928316600482015233602482015260448101919091529116906323b872dd90606401600060405180830381600087803b1580156111e157600080fd5b505af11580156111f5573d6000803e3d6000fd5b5050505060808101516001600160a01b03166000908152600460205260409020600301805461122390612095565b80601f016020809104026020016040519081016040528092919081815260200182805461124f90612095565b801561129c5780601f106112715761010080835404028352916020019161129c565b820191906000526020600020905b81548152906001019060200180831161127f57829003601f168201915b50505050506101008201526080810180516001600160a01b031682526000606083018190529081905260a0820181905260c0820181905260e082018190526101208201819052610140820181905260028054916112f88361206e565b9091555050600082815260036020818152604092839020845181546001600160a01b039182166001600160a01b03199182161783559286015160018301805491831691851691909117905593850151600282015560608501519281019290925560808401516004830180549190941691161790915560a0820151600582015560c0820151600682015560e0820151600782015561010082015182919060088201906113a39082612120565b50610120820151600990910180546101409093015115156101000261ff00199215159290921661ffff19909316929092171790556040808201805160009081526005602090815283822084516060810186523380825260a08801805183860190815242848a01908152855460018181018855968952969097209351600390960290930180546001600160a01b039687166001600160a01b03199091161781559251938301939093559351600290910155925160065493519451909493909116927f263223b1dd81e51054a4e6f791d45a4a1ddb4aadcd93a2dfd892615c3fdac1879161149191815260200190565b60405180910390a45050565b6004602052600090815260409020805481906114b890612095565b80601f01602080910402602001604051908101604052809291908181526020018280546114e490612095565b80156115315780601f1061150657610100808354040283529160200191611531565b820191906000526020600020905b81548152906001019060200180831161151457829003601f168201915b50505050509080600101805461154690612095565b80601f016020809104026020016040519081016040528092919081815260200182805461157290612095565b80156115bf5780601f10611594576101008083540402835291602001916115bf565b820191906000526020600020905b8154815290600101906020018083116115a257829003601f168201915b5050505050908060020154908060030180546115da90612095565b80601f016020809104026020016040519081016040528092919081815260200182805461160690612095565b80156116535780601f1061162857610100808354040283529160200191611653565b820191906000526020600020905b81548152906001019060200180831161163657829003601f168201915b5050506004909301549192505060ff1685565b336000908152600460208190526040909120015460ff16156116ca5760405162461bcd60e51b815260206004820152601a60248201527f596f752061726520616c7265616479207265676973746572656400000000000060448201526064016103a5565b6040805160a08101825285815260208082018690528183018590526060820184905260016080830152336000908152600490915291909120815181906117109082612120565b50602082015160018201906117259082612120565b5060408201516002820155606082015160038201906117449082612120565b50608091909101516004909101805460ff191691151591909117905550505050565b336000908152600460208190526040909120015460ff166117c95760405162461bcd60e51b815260206004820152601e60248201527f596f75206861766520746f20726567697374657220796f75722073656c66000060448201526064016103a5565b60008481526003602052604090206009810154610100900460ff16151560010361181f576040517f90c2044b00000000000000000000000000000000000000000000000000000000815260040160405180910390fd5b600654600282015460405163020604bf60e21b8152600481019190915230916001600160a01b03169063081812fc90602401602060405180830381865afa15801561186e573d6000803e3d6000fd5b505050506040513d601f19601f820116820180604052508101906118929190612051565b6001600160a01b0316146118b957604051630a3492e360e31b815260040160405180910390fd5b81156118dd576006810183905542600782015560098101805460ff19168315151790555b80546001600160a01b0319163390811782556003820185905560098201805461ff0019166101001790556002820154600183015460405191926001600160a01b0391909116917fd547e933094f12a9159076970143ebe73234e64480317844b0dcb36117116de4906119529089815260200190565b60405180910390a45050505050565b6000818152600360208190526040909120908101543410156119af576040517fa58aac5400000000000000000000000000000000000000000000000000000000815260040160405180910390fd5b80546040516000916001600160a01b03169034908381818185875af1925050503d80600081146119fb576040519150601f19603f3d011682016040523d82523d6000602084013e611a00565b606091505b5050905080611a3b576040517f90b8ec1800000000000000000000000000000000000000000000000000000000815260040160405180910390fd5b600654825460028401546040517f42842e0e0000000000000000000000000000000000000000000000000000000081526001600160a01b03928316600482015233602482015260448101919091529116906342842e0e90606401600060405180830381600087803b158015611aaf57600080fd5b505af1158015611ac3573d6000803e3d6000fd5b5050336000908152600460205260409020600885019250611ae89150600301826121e0565b508154336001600160a01b03199182168117845560006003808601828155600487018054861690556005808801849055600688018490556007880184905560098801805461ffff191690556002808901805486526020928352604080872081516060810183528981523481870190815242828501908152835460018181018655948c529a88902092519a9099029091018054909b166001600160a01b03998a16178b55518a82015595519890920197909755955492880154915495519586529194921692917f263223b1dd81e51054a4e6f791d45a4a1ddb4aadcd93a2dfd892615c3fdac187910161066c565b60036020819052600091825260409091208054600182015460028301549383015460048401546005850154600686015460078701546008880180546001600160a01b039889169a97891699979896979690951695939492939192611c3890612095565b80601f0160208091040260200160405190810160405280929190818152602001828054611c6490612095565b8015611cb15780601f10611c8657610100808354040283529160200191611cb1565b820191906000526020600020905b815481529060010190602001808311611c9457829003601f168201915b5050506009909301549192505060ff808216916101009004168b565b600260005403611d1f5760405162461bcd60e51b815260206004820152601f60248201527f5265656e7472616e637947756172643a207265656e7472616e742063616c6c0060448201526064016103a5565b6002600055565b600080600060608486031215611d3b57600080fd5b505081359360208301359350604090920135919050565b6001600160a01b03811681146109b057600080fd5b600060208284031215611d7957600080fd5b8135611d8481611d52565b9392505050565b600060208284031215611d9d57600080fd5b5035919050565b60008060408385031215611db757600080fd5b50508035926020909101359150565b6000815180845260005b81811015611dec57602081850181015186830182015201611dd0565b506000602082860101526020601f19601f83011685010191505092915050565b60a081526000611e1f60a0830188611dc6565b8281036020840152611e318188611dc6565b90508560408401528281036060840152611e4b8186611dc6565b91505082151560808301529695505050505050565b634e487b7160e01b600052604160045260246000fd5b600082601f830112611e8757600080fd5b813567ffffffffffffffff80821115611ea257611ea2611e60565b604051601f8301601f19908116603f01168101908282118183101715611eca57611eca611e60565b81604052838152866020858801011115611ee357600080fd5b836020870160208301376000602085830101528094505050505092915050565b60008060008060808587031215611f1957600080fd5b843567ffffffffffffffff80821115611f3157600080fd5b611f3d88838901611e76565b95506020870135915080821115611f5357600080fd5b611f5f88838901611e76565b9450604087013593506060870135915080821115611f7c57600080fd5b50611f8987828801611e76565b91505092959194509250565b60008060008060808587031215611fab57600080fd5b84359350602085013592506040850135915060608501358015158114611fd057600080fd5b939692955090935050565b60006101606001600160a01b03808f168452808e1660208501528c60408501528b6060850152808b166080850152508860a08401528760c08401528660e08401528061010084015261202f81840187611dc6565b9415156101208401525050901515610140909101529998505050505050505050565b60006020828403121561206357600080fd5b8151611d8481611d52565b60006001820161208e57634e487b7160e01b600052601160045260246000fd5b5060010190565b600181811c908216806120a957607f821691505b6020821081036120c957634e487b7160e01b600052602260045260246000fd5b50919050565b601f82111561211b576000816000526020600020601f850160051c810160208610156120f85750805b601f850160051c820191505b8181101561211757828155600101612104565b5050505b505050565b815167ffffffffffffffff81111561213a5761213a611e60565b61214e816121488454612095565b846120cf565b602080601f831160018114612183576000841561216b5750858301515b600019600386901b1c1916600185901b178555612117565b600085815260208120601f198616915b828110156121b257888601518255948401946001909101908401612193565b50858210156121d05787850151600019600388901b60f8161c191681555b5050505050600190811b01905550565b8181036121eb575050565b6121f58254612095565b67ffffffffffffffff81111561220d5761220d611e60565b61221b816121488454612095565b6000601f82116001811461224f57600083156122375750848201545b600019600385901b1c1916600184901b1784556122b4565b600085815260209020601f19841690600086815260209020845b838110156122895782860154825560019586019590910190602001612269565b50858310156122a75781850154600019600388901b60f8161c191681555b50505060018360011b0184555b505050505056fea2646970667358221220622d1ed53586c9a9132d2a13b9df1c67a573423e939c39f1165cc15d1d0f7ec664736f6c63430008160033",
  "linkReferences": {},
  "deployedLinkReferences": {}
}