{
  "_format": "hh-sol-artifact-1",
  "contractName": "FoodTraceabilityMarketplace",
  "sourceName": "contracts/FoodTraceabilityMarketplace.sol",
  "abi": [
    {
      "inputs": [],
      "name": "NFT_alreadyListed",
      "type": "error"
    },
    {
      "inputs": [],
      "name": "NftIsNotApproved",
      "type": "error"
    },
    {
      "inputs": [],
      "name": "PleaseSendCorreactPrice",
      "type": "error"
    },
    {
      "inputs": [],
      "name": "TransferFailed",
      "type": "error"
    },
    {
      "anonymous": false,
      "inputs": [
        {
          "indexed": true,
          "internalType": "address",
          "name": "buyer",
          "type": "address"
        },
        {
          "indexed": true,
          "internalType": "address",
          "name": "nftAddress",
          "type": "address"
        },
        {
          "indexed": true,
          "internalType": "uint256",
          "name": "tokenId",
          "type": "uint256"
        },
        {
          "indexed": false,
          "internalType": "uint256",
          "name": "price",
          "type": "uint256"
        }
      ],
      "name": "ItemBought",
      "type": "event"
    },
    {
      "anonymous": false,
      "inputs": [
        {
          "indexed": true,
          "internalType": "address",
          "name": "seller",
          "type": "address"
        },
        {
          "indexed": true,
          "internalType": "address",
          "name": "nftAddress",
          "type": "address"
        },
        {
          "indexed": true,
          "internalType": "uint256",
          "name": "tokenId",
          "type": "uint256"
        }
      ],
      "name": "ItemCanceled",
      "type": "event"
    },
    {
      "anonymous": false,
      "inputs": [
        {
          "indexed": true,
          "internalType": "address",
          "name": "seller",
          "type": "address"
        },
        {
          "indexed": true,
          "internalType": "address",
          "name": "nftAddress",
          "type": "address"
        },
        {
          "indexed": true,
          "internalType": "uint256",
          "name": "tokenId",
          "type": "uint256"
        },
        {
          "indexed": false,
          "internalType": "uint256",
          "name": "price",
          "type": "uint256"
        }
      ],
      "name": "ItemListed",
      "type": "event"
    },
    {
      "inputs": [],
      "name": "ListdItems",
      "outputs": [
        {
          "internalType": "uint256",
          "name": "",
          "type": "uint256"
        }
      ],
      "stateMutability": "view",
      "type": "function"
    },
    {
      "inputs": [
        {
          "internalType": "address",
          "name": "",
          "type": "address"
        },
        {
          "internalType": "uint256",
          "name": "",
          "type": "uint256"
        }
      ],
      "name": "_auctionDetail",
      "outputs": [
        {
          "internalType": "address payable",
          "name": "seller",
          "type": "address"
        },
        {
          "internalType": "uint256",
          "name": "basePrice",
          "type": "uint256"
        },
        {
          "internalType": "address",
          "name": "highestBidder",
          "type": "address"
        },
        {
          "internalType": "uint256",
          "name": "highestBid",
          "type": "uint256"
        },
        {
          "internalType": "uint256",
          "name": "endTime",
          "type": "uint256"
        },
        {
          "internalType": "uint256",
          "name": "starTime",
          "type": "uint256"
        },
        {
          "internalType": "bool",
          "name": "ended",
          "type": "bool"
        },
        {
          "internalType": "bool",
          "name": "auction",
          "type": "bool"
        }
      ],
      "stateMutability": "view",
      "type": "function"
    },
    {
      "inputs": [
        {
          "internalType": "address",
          "name": "_nft",
          "type": "address"
        },
        {
          "internalType": "uint256",
          "name": "_tokenId",
          "type": "uint256"
        }
      ],
      "name": "_checkAuctionStatus",
      "outputs": [
        {
          "internalType": "bool",
          "name": "",
          "type": "bool"
        }
      ],
      "stateMutability": "view",
      "type": "function"
    },
    {
      "inputs": [
        {
          "internalType": "address",
          "name": "_nft",
          "type": "address"
        },
        {
          "internalType": "uint256",
          "name": "_tokenId",
          "type": "uint256"
        }
      ],
      "name": "_updateStatus",
      "outputs": [],
      "stateMutability": "nonpayable",
      "type": "function"
    },
    {
      "inputs": [
        {
          "internalType": "address",
          "name": "_nft",
          "type": "address"
        },
        {
          "internalType": "uint256",
          "name": "_tokenId",
          "type": "uint256"
        },
        {
          "internalType": "address",
          "name": "_token",
          "type": "address"
        },
        {
          "internalType": "uint256",
          "name": "_amount",
          "type": "uint256"
        }
      ],
      "name": "bid",
      "outputs": [],
      "stateMutability": "nonpayable",
      "type": "function"
    },
    {
      "inputs": [
        {
          "internalType": "address",
          "name": "_nft",
          "type": "address"
        },
        {
          "internalType": "uint256",
          "name": "_tokenId",
          "type": "uint256"
        }
      ],
      "name": "buyItem",
      "outputs": [],
      "stateMutability": "payable",
      "type": "function"
    },
    {
      "inputs": [
        {
          "internalType": "address",
          "name": "_nft",
          "type": "address"
        },
        {
          "internalType": "uint256",
          "name": "_tokenId",
          "type": "uint256"
        }
      ],
      "name": "cancellAuction",
      "outputs": [],
      "stateMutability": "nonpayable",
      "type": "function"
    },
    {
      "inputs": [
        {
          "internalType": "uint256",
          "name": "",
          "type": "uint256"
        }
      ],
      "name": "collection",
      "outputs": [
        {
          "internalType": "address",
          "name": "",
          "type": "address"
        }
      ],
      "stateMutability": "view",
      "type": "function"
    },
    {
      "inputs": [
        {
          "internalType": "address",
          "name": "_nft",
          "type": "address"
        },
        {
          "internalType": "uint256",
          "name": "_tokenId",
          "type": "uint256"
        },
        {
          "internalType": "address",
          "name": "_token",
          "type": "address"
        }
      ],
      "name": "concludeAuction",
      "outputs": [],
      "stateMutability": "nonpayable",
      "type": "function"
    },
    {
      "inputs": [
        {
          "internalType": "address",
          "name": "_nft",
          "type": "address"
        },
        {
          "internalType": "uint256",
          "name": "_tokenId",
          "type": "uint256"
        },
        {
          "internalType": "uint256",
          "name": "_basePrice",
          "type": "uint256"
        },
        {
          "internalType": "uint256",
          "name": "endTime",
          "type": "uint256"
        }
      ],
      "name": "createAuction",
      "outputs": [],
      "stateMutability": "nonpayable",
      "type": "function"
    },
    {
      "inputs": [
        {
          "internalType": "address",
          "name": "_nft",
          "type": "address"
        },
        {
          "internalType": "uint256",
          "name": "_tokenId",
          "type": "uint256"
        }
      ],
      "name": "getHighestBid",
      "outputs": [
        {
          "internalType": "uint256",
          "name": "",
          "type": "uint256"
        }
      ],
      "stateMutability": "view",
      "type": "function"
    },
    {
      "inputs": [
        {
          "internalType": "address",
          "name": "_nft",
          "type": "address"
        },
        {
          "internalType": "uint256",
          "name": "_tokenId",
          "type": "uint256"
        }
      ],
      "name": "getHighestBidder",
      "outputs": [
        {
          "internalType": "address",
          "name": "",
          "type": "address"
        }
      ],
      "stateMutability": "view",
      "type": "function"
    },
    {
      "inputs": [
        {
          "internalType": "address",
          "name": "_nft",
          "type": "address"
        },
        {
          "internalType": "uint256",
          "name": "_tokenId",
          "type": "uint256"
        }
      ],
      "name": "getLastTime",
      "outputs": [
        {
          "internalType": "uint256",
          "name": "",
          "type": "uint256"
        }
      ],
      "stateMutability": "view",
      "type": "function"
    },
    {
      "inputs": [
        {
          "internalType": "address",
          "name": "_nft",
          "type": "address"
        },
        {
          "internalType": "uint256",
          "name": "_tokenId",
          "type": "uint256"
        }
      ],
      "name": "isAuction",
      "outputs": [
        {
          "internalType": "bool",
          "name": "",
          "type": "bool"
        }
      ],
      "stateMutability": "view",
      "type": "function"
    },
    {
      "inputs": [
        {
          "internalType": "address",
          "name": "_address",
          "type": "address"
        }
      ],
      "name": "isUser",
      "outputs": [
        {
          "internalType": "bool",
          "name": "",
          "type": "bool"
        }
      ],
      "stateMutability": "view",
      "type": "function"
    },
    {
      "inputs": [
        {
          "internalType": "address",
          "name": "",
          "type": "address"
        },
        {
          "internalType": "uint256",
          "name": "",
          "type": "uint256"
        }
      ],
      "name": "listing",
      "outputs": [
        {
          "internalType": "address payable",
          "name": "seller",
          "type": "address"
        },
        {
          "internalType": "uint256",
          "name": "price",
          "type": "uint256"
        },
        {
          "internalType": "bool",
          "name": "sale",
          "type": "bool"
        },
        {
          "internalType": "bool",
          "name": "listed",
          "type": "bool"
        }
      ],
      "stateMutability": "view",
      "type": "function"
    },
    {
      "inputs": [
        {
          "internalType": "string",
          "name": "_name",
          "type": "string"
        },
        {
          "internalType": "string",
          "name": "_email",
          "type": "string"
        },
        {
          "internalType": "uint256",
          "name": "_phone_number",
          "type": "uint256"
        },
        {
          "internalType": "string",
          "name": "_role",
          "type": "string"
        }
      ],
      "name": "registerAsUser",
      "outputs": [],
      "stateMutability": "nonpayable",
      "type": "function"
    },
    {
      "inputs": [
        {
          "internalType": "address",
          "name": "",
          "type": "address"
        }
      ],
      "name": "registerationAccount",
      "outputs": [
        {
          "internalType": "string",
          "name": "name",
          "type": "string"
        },
        {
          "internalType": "string",
          "name": "email",
          "type": "string"
        },
        {
          "internalType": "uint256",
          "name": "phone_number",
          "type": "uint256"
        },
        {
          "internalType": "string",
          "name": "role",
          "type": "string"
        },
        {
          "internalType": "bool",
          "name": "isRegister",
          "type": "bool"
        }
      ],
      "stateMutability": "view",
      "type": "function"
    },
    {
      "inputs": [
        {
          "internalType": "address",
          "name": "_nft",
          "type": "address"
        },
        {
          "internalType": "uint256",
          "name": "_tokenId",
          "type": "uint256"
        },
        {
          "internalType": "uint256",
          "name": "_price",
          "type": "uint256"
        }
      ],
      "name": "sellItem",
      "outputs": [],
      "stateMutability": "nonpayable",
      "type": "function"
    },
    {
      "inputs": [],
      "name": "totalAuctionSale",
      "outputs": [
        {
          "internalType": "uint256",
          "name": "",
          "type": "uint256"
        }
      ],
      "stateMutability": "view",
      "type": "function"
    }
  ],
  "bytecode": "0x608060405234801561001057600080fd5b5060016000556122fa806100256000396000f3fe60806040526004361061015f5760003560e01c80638de820f6116100c0578063b567858811610074578063d712c1e611610059578063d712c1e61461056d578063d9a0cbb91461061c578063f07723771461063c57600080fd5b8063b56785881461052d578063d48351a91461054d57600080fd5b80639f37092a116100a55780639f37092a14610438578063a4cfca051461044b578063a670a9b41461046b57600080fd5b80638de820f6146103785780639753b6441461040757600080fd5b806368915327116101175780637621f5c4116100fc5780637621f5c414610322578063784d5342146103385780638226508d1461035857600080fd5b806368915327146102e25780636ae50a221461030257600080fd5b806344ac0c411161014857806344ac0c411461027c5780634a550338146102a057806361beb1d7146102c257600080fd5b80633cc6221a146101645780634209fff114610230575b600080fd5b34801561017057600080fd5b506101dd61017f366004611d84565b6005602081815260009384526040808520909152918352912080546001820154600283015460038401546004850154958501546006909501546001600160a01b03948516969395949092169390929160ff8082169161010090041688565b604080516001600160a01b03998a168152602081019890985295909716948601949094526060850192909252608084015260a0830152151560c082015290151560e0820152610100015b60405180910390f35b34801561023c57600080fd5b5061026c61024b366004611db0565b6001600160a01b031660009081526006602052604090206004015460ff1690565b6040519015158152602001610227565b34801561028857600080fd5b5061029260015481565b604051908152602001610227565b3480156102ac57600080fd5b506102c06102bb366004611d84565b61065c565b005b3480156102ce57600080fd5b506102c06102dd366004611dd4565b6107fe565b3480156102ee57600080fd5b506102c06102fd366004611e0f565b610b42565b34801561030e57600080fd5b506102c061031d366004611d84565b610dcf565b34801561032e57600080fd5b5061029260025481565b34801561034457600080fd5b506102c0610353366004611e44565b610fbf565b34801561036457600080fd5b50610292610373366004611d84565b611341565b34801561038457600080fd5b506103d5610393366004611d84565b60046020908152600092835260408084209091529082529020805460018201546002909201546001600160a01b03909116919060ff8082169161010090041684565b604080516001600160a01b03909516855260208501939093529015159183019190915215156060820152608001610227565b34801561041357600080fd5b50610427610422366004611db0565b6113da565b604051610227959493929190611ecc565b6102c0610446366004611d84565b6115a3565b34801561045757600080fd5b506102c0610466366004611fc3565b6117a0565b34801561047757600080fd5b50610515610486366004611d84565b6001600160a01b0391821660009081526005602081815260408084209484529381529183902083516101008082018652825487168252600183015494820194909452600282015490951693850184905260038101546060860152600481015460808601529081015460a08501526006015460ff808216151560c086015291900416151560e09092019190915290565b6040516001600160a01b039091168152602001610227565b34801561053957600080fd5b506102c0610548366004612055565b61189f565b34801561055957600080fd5b5061026c610568366004611d84565b611bef565b34801561057957600080fd5b50610292610588366004611d84565b6001600160a01b0391821660009081526005602081815260408084209484529381529183902083516101008082018652825487168252600183015494820194909452600282015490951693850193909352600383015460608501526004830154608085018190529083015460a085015260069092015460ff808216151560c086015291900416151560e09092019190915290565b34801561062857600080fd5b5061026c610637366004611d84565b611cfa565b34801561064857600080fd5b5061051561065736600461209d565b611d42565b6001600160a01b0380831660009081526005602081815260408084208685528252928390208351610100808201865282548716825260018301549382019390935260028201549095169385019390935260038301546060850152600483015460808501529082015460a084015260069091015460ff80821615801560c08601529290910416151560e08301526107395760405162461bcd60e51b815260206004820152601660248201527f546869732061756374696f6e2068617320456e6465640000000000000000000060448201526064015b60405180910390fd5b806080015142111561074d57600160c08201525b6001600160a01b03928316600090815260056020818152604080842095845294815291849020835181549087166001600160a01b03199182161782559284015160018201559383015160028501805491909616921691909117909355606081015160038301556080810151600483015560a08101519282019290925560c08201516006909101805460e09093015115156101000261ff0019921515831661ffff199094169390931792909217169055565b60405163020604bf60e21b81526004810184905230906001600160a01b0386169063081812fc90602401602060405180830381865afa158015610845573d6000803e3d6000fd5b505050506040513d601f19601f8201168201806040525081019061086991906120b6565b6001600160a01b03161461089057604051630a3492e360e31b815260040160405180910390fd5b600180549060006108a0836120e9565b909155506108b19050816001612102565b90506108bd8142612119565b9050604051806101000160405280336001600160a01b0316815260200183815260200160006001600160a01b03168152602001600081526020018281526020014281526020016000151581526020016001151581525060056000866001600160a01b03166001600160a01b03168152602001908152602001600020600085815260200190815260200160002060008201518160000160006101000a8154816001600160a01b0302191690836001600160a01b031602179055506020820151816001015560408201518160020160006101000a8154816001600160a01b0302191690836001600160a01b03160217905550606082015181600301556080820151816004015560a0820151816005015560c08201518160060160006101000a81548160ff02191690831515021790555060e08201518160060160016101000a81548160ff0219169083151502179055509050506040518060800160405280336001600160a01b031681526020018381526020016000151581526020016001151581525060046000866001600160a01b03166001600160a01b03168152602001908152602001600020600085815260200190815260200160002060008201518160000160006101000a8154816001600160a01b0302191690836001600160a01b031602179055506020820151816001015560408201518160020160006101000a81548160ff02191690831515021790555060608201518160020160016101000a81548160ff02191690831515021790555090505082846001600160a01b0316336001600160a01b03167fd547e933094f12a9159076970143ebe73234e64480317844b0dcb36117116de485604051610b3491815260200190565b60405180910390a450505050565b6001600160a01b0383166000908152600460209081526040808320858452909152902060020154610100900460ff161515600103610bac576040517f90c2044b00000000000000000000000000000000000000000000000000000000815260040160405180910390fd5b60405163020604bf60e21b81526004810183905230906001600160a01b0385169063081812fc90602401602060405180830381865afa158015610bf3573d6000803e3d6000fd5b505050506040513d601f19601f82011682018060405250810190610c1791906120b6565b6001600160a01b031614610c3e57604051630a3492e360e31b815260040160405180910390fd5b60018054906000610c4e836120e9565b909155505060408051608081018252338152602080820184815260008385018181526001606086018181526001600160a01b038b81168552600487528885208b8652909652968320955186546001600160a01b03191695169490941785559151928401929092555160029092018054935161ffff1990941692151561ff0019169290921761010093151593909302929092179055805b600354811015610d3257846001600160a01b031660038281548110610d0b57610d0b61212c565b6000918252602090912001546001600160a01b031603610d2a57600191505b600101610ce4565b50801515600003610d8957600380546001810182556000919091527fc2575a0e9e593c00f959f8c92f12db2869c3395a3b0502d05e2516446f71f85b0180546001600160a01b0319166001600160a01b0386161790555b82846001600160a01b0316336001600160a01b03167fd547e933094f12a9159076970143ebe73234e64480317844b0dcb36117116de485604051610b3491815260200190565b6001600160a01b038083166000908152600560208181526040808420868552808352818520825161010080820185528254891680835260018401548388015260028401549099169482019490945260038201546060820152600482015460808201529481015460a08601526006015460ff808216151560c0870152929004909116151560e08401529285905291909152903314610eae5760405162461bcd60e51b815260206004820152601d60248201527f596f7520617265206e6f74204f776e6572206f662074686973204e46540000006044820152606401610730565b42816080015110610f015760405162461bcd60e51b815260206004820152601660248201527f41756374696f6e2054696d652072656d61696e696e67000000000000000000006044820152606401610730565b6000610f0d8484611bef565b905080610f1e57610f1e848461065c565b50506001600160a01b03918216600090815260046020908152604080832084845280835281842082516080810184528154808916825260018301805483880190815260028501805460ff81161515988601988952606086018b81529b909a529590975291519098166001600160a01b031990981697909717905591519094559251915115156101000261ff00199215159290921661ffff1990911617179055565b6001600160a01b03808416600090815260056020818152604080842087855282529283902083516101008082018652825487168252600183015493820193909352600282015490951693850184905260038101546060860152600481015460808601529182015460a085015260069091015460ff808216151560c086015291900416151560e083015233146110bc5760405162461bcd60e51b815260206004820152602e60248201527f596f7520617265206e6f7420617574686f72697a656420746f20636f6e636c7560448201527f6465207468652061756374696f6e0000000000000000000000000000000000006064820152608401610730565b4281608001511061110f5760405162461bcd60e51b815260206004820152601660248201527f41756374696f6e2054696d652072656d61696e696e67000000000000000000006044820152606401610730565b600061111b8585611bef565b90508061112c5761112c858561065c565b6001600160a01b0385811660008181526004602081815260408084208a8552825292839020835160808101855281549096168087526001820154928701929092526002015460ff808216151587860152610100909104161515606086015291516323b872dd60e01b815290810191909152336024820152604481018790526323b872dd90606401600060405180830381600087803b1580156111cd57600080fd5b505af11580156111e1573d6000803e3d6000fd5b50506001604084810191909152858101518451606088015192516323b872dd60e01b81526001600160a01b03928316600482015290821660248201526044810192909252871692506323b872dd91506064016020604051808303816000875af1158015611252573d6000803e3d6000fd5b505050506040513d601f19601f820116820180604052508101906112769190612142565b5060028054906000611287836120e9565b90915550506001600160a01b0386811660008181526004602090815260408083208a8452825291829020855181546001600160a01b0319169516949094178455848101516001850155848201516002909401805460608088015161ffff1990921696151561ff0019169690961761010091151591909102179055928601519051908152879233917f263223b1dd81e51054a4e6f791d45a4a1ddb4aadcd93a2dfd892615c3fdac187910160405180910390a4505050505050565b6001600160a01b03808316600090815260056020818152604080842086855282529283902083516101008082018652825487168252600183015493820193909352600282015490951693850193909352600383015460608501819052600484015460808601529183015460a085015260069092015460ff808216151560c0860152929004909116151560e0909201919091525b92915050565b6006602052600090815260409020805481906113f590612164565b80601f016020809104026020016040519081016040528092919081815260200182805461142190612164565b801561146e5780601f106114435761010080835404028352916020019161146e565b820191906000526020600020905b81548152906001019060200180831161145157829003601f168201915b50505050509080600101805461148390612164565b80601f01602080910402602001604051908101604052809291908181526020018280546114af90612164565b80156114fc5780601f106114d1576101008083540402835291602001916114fc565b820191906000526020600020905b8154815290600101906020018083116114df57829003601f168201915b50505050509080600201549080600301805461151790612164565b80601f016020809104026020016040519081016040528092919081815260200182805461154390612164565b80156115905780601f1061156557610100808354040283529160200191611590565b820191906000526020600020905b81548152906001019060200180831161157357829003601f168201915b5050506004909301549192505060ff1685565b6001600160a01b038216600090815260046020908152604080832084845290915290206001810154341015611604576040517fa58aac5400000000000000000000000000000000000000000000000000000000815260040160405180910390fd5b80546040516000916001600160a01b03169034908381818185875af1925050503d8060008114611650576040519150601f19603f3d011682016040523d82523d6000602084013e611655565b606091505b5050905080611690576040517f90b8ec1800000000000000000000000000000000000000000000000000000000815260040160405180910390fd5b60028201805461ffff1916600117905581546040517f42842e0e0000000000000000000000000000000000000000000000000000000081526001600160a01b03918216600482015233602482015260448101859052908516906342842e0e90606401600060405180830381600087803b15801561170c57600080fd5b505af1158015611720573d6000803e3d6000fd5b505050506001600160a01b0384166000818152600460209081526040808320878452825280832080546001600160a01b0319168155600180820194909455600201805461ffff1916905591850154915191825285929133917f263223b1dd81e51054a4e6f791d45a4a1ddb4aadcd93a2dfd892615c3fdac1879101610b34565b3360009081526006602052604090206004015460ff16156118035760405162461bcd60e51b815260206004820152601a60248201527f596f752061726520616c726561647920726567697374657265640000000000006044820152606401610730565b6040805160a081018252858152602080820186905281830185905260608201849052600160808301523360009081526006909152919091208151819061184990826121eb565b506020820151600182019061185e90826121eb565b50604082015160028201556060820151600382019061187d90826121eb565b50608091909101516004909101805460ff191691151591909117905550505050565b6001600160a01b03841660009081526005602090815260408083208684529091529020600681015460ff16156119175760405162461bcd60e51b815260206004820152601160248201527f41756374696f6e2068617320656e6465640000000000000000000000000000006044820152606401610730565b80546001600160a01b031661196e5760405162461bcd60e51b815260206004820152601660248201527f41756374696f6e20646f6573206e6f74206578697374000000000000000000006044820152606401610730565b611978858561065c565b8060040154421015611be85781816003015410801561199b575081816001015411155b6119e75760405162461bcd60e51b815260206004820152601660248201527f506c656173652073656e64206d6f72652066756e6473000000000000000000006044820152606401610730565b80546001600160a01b03163303611a665760405162461bcd60e51b815260206004820152602260248201527f596f752063616e6e6f742062696420696e20796f7572206f776e20617563746960448201527f6f6e0000000000000000000000000000000000000000000000000000000000006064820152608401610730565b6040517f70a0823100000000000000000000000000000000000000000000000000000000815233600482015282906001600160a01b038516906370a0823190602401602060405180830381865afa158015611ac5573d6000803e3d6000fd5b505050506040513d601f19601f82011682018060405250810190611ae991906122ab565b1015611b375760405162461bcd60e51b815260206004820152601560248201527f796f7520446f6e7420486176652042616c616e636500000000000000000000006044820152606401610730565b6040517fdd62ed3e0000000000000000000000000000000000000000000000000000000081523360048201523060248201526000906001600160a01b0385169063dd62ed3e90604401602060405180830381865afa158015611b9d573d6000803e3d6000fd5b505050506040513d601f19601f82011682018060405250810190611bc191906122ab565b9050828110611be6576002820180546001600160a01b03191633179055600382018390555b505b5050505050565b6001600160a01b0380831660009081526005602081815260408084208685528252808420815161010080820184528254881680835260018401549583019590955260028301549097169281019290925260038101546060830152600481015460808301529283015460a082015260069092015460ff808216151560c0850152949004909316151560e08201529091611cef5760405162461bcd60e51b815260206004820152602760248201527f41756374696f6e20666f722074686973204e4654206973206e6f7420696e207060448201527f726f6772657373000000000000000000000000000000000000000000000000006064820152608401610730565b60c001519392505050565b6001600160a01b0382166000908152600560209081526040808320848452909152812060060154610100900460ff161515600103611d3a575060016113d4565b5060006113d4565b60038181548110611d5257600080fd5b6000918252602090912001546001600160a01b0316905081565b6001600160a01b0381168114611d8157600080fd5b50565b60008060408385031215611d9757600080fd5b8235611da281611d6c565b946020939093013593505050565b600060208284031215611dc257600080fd5b8135611dcd81611d6c565b9392505050565b60008060008060808587031215611dea57600080fd5b8435611df581611d6c565b966020860135965060408601359560600135945092505050565b600080600060608486031215611e2457600080fd5b8335611e2f81611d6c565b95602085013595506040909401359392505050565b600080600060608486031215611e5957600080fd5b8335611e6481611d6c565b9250602084013591506040840135611e7b81611d6c565b809150509250925092565b6000815180845260005b81811015611eac57602081850181015186830182015201611e90565b506000602082860101526020601f19601f83011685010191505092915050565b60a081526000611edf60a0830188611e86565b8281036020840152611ef18188611e86565b90508560408401528281036060840152611f0b8186611e86565b91505082151560808301529695505050505050565b634e487b7160e01b600052604160045260246000fd5b600082601f830112611f4757600080fd5b813567ffffffffffffffff80821115611f6257611f62611f20565b604051601f8301601f19908116603f01168101908282118183101715611f8a57611f8a611f20565b81604052838152866020858801011115611fa357600080fd5b836020870160208301376000602085830101528094505050505092915050565b60008060008060808587031215611fd957600080fd5b843567ffffffffffffffff80821115611ff157600080fd5b611ffd88838901611f36565b9550602087013591508082111561201357600080fd5b61201f88838901611f36565b945060408701359350606087013591508082111561203c57600080fd5b5061204987828801611f36565b91505092959194509250565b6000806000806080858703121561206b57600080fd5b843561207681611d6c565b935060208501359250604085013561208d81611d6c565b9396929550929360600135925050565b6000602082840312156120af57600080fd5b5035919050565b6000602082840312156120c857600080fd5b8151611dcd81611d6c565b634e487b7160e01b600052601160045260246000fd5b6000600182016120fb576120fb6120d3565b5060010190565b80820281158282048414176113d4576113d46120d3565b808201808211156113d4576113d46120d3565b634e487b7160e01b600052603260045260246000fd5b60006020828403121561215457600080fd5b81518015158114611dcd57600080fd5b600181811c9082168061217857607f821691505b60208210810361219857634e487b7160e01b600052602260045260246000fd5b50919050565b601f8211156121e6576000816000526020600020601f850160051c810160208610156121c75750805b601f850160051c820191505b81811015611be6578281556001016121d3565b505050565b815167ffffffffffffffff81111561220557612205611f20565b612219816122138454612164565b8461219e565b602080601f83116001811461224e57600084156122365750858301515b600019600386901b1c1916600185901b178555611be6565b600085815260208120601f198616915b8281101561227d5788860151825594840194600190910190840161225e565b508582101561229b5787850151600019600388901b60f8161c191681555b5050505050600190811b01905550565b6000602082840312156122bd57600080fd5b505191905056fea26469706673582212206b41d77da1507696c8fccd540b88e6a5c3aa41a0e4fe3cc66f180ec321b7621e64736f6c63430008160033",
  "linkReferences": {},
  "deployedLinkReferences": {}
}